:020000040800F2
:100000000028002085140008151400081B1400089F
:1000100021140008271400082D1400080000000017
:100020000000000000000000000000003314000881
:100030003F140008000000004B140008571400088B
:10004000CD140008CD140008CD140008CD1400080C
:10005000CD140008CD140008CD140008CD140008FC
:10006000CD140008CD140008CD140008CD140008EC
:10007000CD140008CD140008CD140008CD140008DC
:10008000CD140008CD140008CD140008CD140008CC
:10009000CD140008CD140008CD140008CD140008BC
:1000A000CD140008CD140008CD140008CD140008AC
:1000B00065140008CD14000800000000CD140008ED
:1000C000CD1400080000000000000000CD1400085E
:1000D00000000000CD140008CD140008000000004E
:1000E000CD140008CD140008CD1400080000000055
:1000F0000000000000000000000000000000000000
:0C01000000000000000000005FF808F1A3
:10010C0010B5054C237833B9044B13B10448AFF345
:10011C0000800123237010BD2C0000200000000083
:10012C00FC2A000808B5034B1BB103490348AFF385
:10013C00008008BD0000000030000020FC2A0008F0
:10014C0080B500AF4FF40071024801F0D4FC00BF41
:10015C0080BD00BF000C014080B582B000AF002311
:10016C007B605DE0324A7B6813441978314A7B68C6
:10017C0013440A461A70304A7B6852F823202F49E0
:10018C007B6831F813301946104601F085FC0346A4
:10019C001946274A7B6813440A461A70244A7B681E
:1001AC0013441A7823497B680B441B789A4208D174
:1001BC001F4A7B6813441978214A7B6813440A460A
:1001CC001A701F4A7B6813441B78002B1BD11D4AE5
:1001DC007B6832F81330312B0FD81A4A7B6832F80F
:1001EC001330013399B2174A7B6822F813104FF47D
:1001FC00FA71032001F048F80FE0134A7B681344AE
:10020C0001221A7009E00F4A7B68002122F81310B2
:10021C000D4A7B68134400221A707B6801337B60A3
:10022C007B68022B9ED900BF00BF0837BD4680BD3E
:10023C0004000020080000200C0000201800002002
:10024C0000000020500000205800002080B483B033
:10025C0000AF78607B68022B01D9002313E00C4AB5
:10026C007B6813441B78002B0CD10A4A7B6832F84C
:10027C001330012B06D8064A7B68134401221A70EE
:10028C00012300E0002318460C37BD4680BC7047A4
:10029C00000000205000002080B582B000AF7860D4
:1002AC007B68022B01D9002313E0032001F03CF8FA
:1002BC000346002B0CD0094A7B6813441B78012B96
:1002CC0006D14FF4FA71032000F0DEFF012300E0A9
:1002DC00002318460837BD4680BD00BF58000020DB
:1002EC0080B500AF114B03221A60114B02221A6029
:1002FC00104B05221A60104B00221A600D4B1B6824
:10030C000E4A13600E4B01221A60084B1B680D4AF3
:10031C0013604FF47A71002000F0B6FF4FF47A713D
:10032C00012000F0B1FF00BF80BD00BF70000020B5
:10033C00780000207C0000206C0000206800002069
:10034C00640000206000002080B500AF0C4B002240
:10035C001A600C4B1B680C4A13600C4B01221A6080
:10036C000B4B1B680B4A13604FF47A71002000F0A2
:10037C008BFF4FF47A71012000F086FF00BF80BD27
:10038C006C0000207C00002068000020640000202D
:10039C00700000206000002080B500AF7A4B1B6815
:1003AC007A4A12681146184600F0ACFB784B1B6871
:1003BC00022B23D0022B5DDC002B3DD0012B59D11D
:1003CC0000F0C6FC002000F0AFFF0346002B09D064
:1003DC004FF47A71002000F057FF6B4B1B68013B08
:1003EC00694A1360684B1B68002B50DC694B1B6817
:1003FC00654A1360664B02221A6048E000F0C0FCAC
:10040C00002000F091FF0346002B09D04FF47A71C5
:10041C00002000F039FF5C4B1B68013B5A4A13600B
:10042C00594B1B68002B34DC5B4B1B68564A136022
:10043C00574B00221A602CE000F0BAFC002000F0B0
:10044C0073FF0346002B09D04FF47A71002000F0A3
:10045C001BFF4D4B1B68013B4B4A13604A4B1B68FF
:10046C00002B18DC4D4B1B68474A1360484B01228C
:10047C001A6010E0464B00221A60474B1B68424A38
:10048C0013604FF47A71002000F0FEFE04E000BF10
:10049C0002E000BF00E000BF414B1B68022B23D0E1
:1004AC00022B5DDC002B3DD0012B59D100F098FCC8
:1004BC00012000F039FF0346002B09D04FF47A716C
:1004CC00012000F0E1FE314B1B68013B2F4A136009
:1004DC002E4B1B68002B50DC2E4B1B682B4A1360D9
:1004EC002F4B02221A6048E000F092FC012000F031
:1004FC001BFF0346002B09D04FF47A71012000F04A
:10050C00C3FE224B1B68013B204A13601F4B1B6828
:10051C00002B34DC204B1B681C4A1360204B002240
:10052C001A602CE000F08CFC012000F0FDFE03466C
:10053C00002B09D04FF47A71012000F0A5FE134B6B
:10054C001B68013B114A1360104B1B68002B18DC15
:10055C00124B1B680D4A1360114B01221A6010E0FC
:10056C000F4B00221A600C4B1B68084A13604FF4A7
:10057C007A71012000F088FE04E000BF02E000BFA9
:10058C0000E000BF00BF80BD6800002060000020BC
:10059C006C000020780000207C00002070000020FF
:1005AC006400002080B500AF002000F0BDFE0346C3
:1005BC00002B06D000F05CFC4FF4FA71002000F028
:1005CC0063FE214B1B681946042000F09BFA0120A6
:1005DC00FFF762FE0346002B10D01B4B1B68013348
:1005EC001A4A126893FBF2F102FB01F29B1A164AAB
:1005FC0013604FF4FA71032000F046FE0120FFF760
:10060C0025FE0346002B0BD00F4B1B6801330F4A02
:10061C00126893FBF2F102FB01F29B1A0A4A136077
:10062C000220FFF713FE0346002B0AD0064B1B6873
:10063C00074A1360054B1A68054B1B68D31A054A09
:10064C00136000BF80BD00BF740000207C00002040
:10065C00700000207800002080B500AF002000F072
:10066C0063FE0346002B06D000F02AFC4FF4FA710F
:10067C00002000F009FE214B1B681946032000F0F6
:10068C0041FA0120FFF708FE0346002B10D01B4B4C
:10069C001B6801331A4A126893FBF2F102FB01F258
:1006AC009B1A164A13604FF4FA71032000F0ECFD0C
:1006BC000120FFF7CBFD0346002B0BD00F4B1B6823
:1006CC0001330F4A126893FBF2F102FB01F29B1A01
:1006DC000A4A13600220FFF7B9FD0346002B0AD02B
:1006EC00064B1B68074A1360054B1A68054B1B68C1
:1006FC00D31A054A136000BF80BD00BF74000020F0
:10070C007C000020780000207000002080B500AF35
:10071C00002000F009FE0346002B06D000F0F8FB89
:10072C004FF4FA71002000F0AFFD294B1B681946FD
:10073C00022000F0E7F90120FFF7AEFD0346002B85
:10074C0013D0234B1B685A1C224B83FB02135911E9
:10075C00D317CB1A642101FB03F3D31A1C4A136081
:10076C004FF4FA71032000F08FFD0120FFF76EFDAE
:10077C000346002B0ED0164B1B685A1C154B83FBE3
:10078C0002135911D317CB1A642101FB03F3D31AAB
:10079C000F4A13600220FFF759FD0346002B15D0BA
:1007AC000B4B1B680C4A13600C4B1B680A4A1268F3
:1007BC0093FBF2F102FB01F29B1A084A1360064B01
:1007CC001A68064B1B68D31A054A136000BF80BD1C
:1007DC00740000201F85EB517C000020700000206D
:1007EC007800002080B582B000AF78607B68092B60
:1007FC0000F2808101A252F823F000BF31080008FA
:10080C0079080008C1080008090900085109000806
:10081C0099090008E1090008290A0008710A000872
:10082C00B90A000800220121B54801F04CF9002258
:10083C000221B34801F047F900220421B04801F02D
:10084C0042F900220821AE4801F03DF900221021A6
:10085C00AB4801F038F900222021A94801F033F906
:10086C0001224021A64801F02EF944E10122012188
:10087C00A34801F028F900220221A14801F023F934
:10088C00002204219E4801F01EF9012208219C48F7
:10089C0001F019F901221021994801F014F90122F3
:1008AC002021974801F00FF901224021944801F0D2
:1008BC000AF920E100220121914801F004F90022FB
:1008CC0002218F4801F0FFF8012204218C4801F02D
:1008DC00FAF8002208218A4801F0F5F800221021CC
:1008EC00874801F0F0F801222021854801F0EBF84F
:1008FC0000224021824801F0E6F8FCE000220121B0
:10090C007F4801F0E0F8002202217D4801F0DBF87D
:10091C00002204217A4801F0D6F8002208217848F8
:10092C0001F0D1F801221021754801F0CCF8012218
:10093C002021734801F0C7F800224021704801F0D3
:10094C00C2F8D8E0012201216D4801F0BCF8002268
:10095C0002216B4801F0B7F800220421684801F02D
:10096C00B2F801220821664801F0ADF801221021ED
:10097C00634801F0A8F800222021614801F0A3F897
:10098C00002240215E4801F09EF8B4E000220121D3
:10099C005B4801F098F801220221594801F093F8C4
:1009AC0000220421564801F08EF8002208215448F8
:1009BC0001F089F801221021514801F084F800223D
:1009CC0020214F4801F07FF8002240214C4801F0D3
:1009DC007AF890E000220121494801F074F80122D4
:1009EC000221474801F06FF800220421444801F02D
:1009FC006AF800220821424801F065F80022102113
:100A0C003F4801F060F8002220213D4801F05BF8DE
:100A1C00002240213A4801F056F86CE000220121F6
:100A2C00374801F050F800220221354801F04BF80C
:100A3C0000220421324801F046F8012208213048F6
:100A4C0001F041F8012210212D4801F03CF801225F
:100A5C0020212B4801F037F801224021284801F0D1
:100A6C0032F848E000220121254801F02CF8002240
:100A7C000221234801F027F800220421204801F02C
:100A8C0022F8002208211E4801F01DF80022102136
:100A9C001B4801F018F800222021194801F013F826
:100AAC0000224021164801F00EF824E0002201211A
:100ABC00134801F008F800220221114801F003F854
:100ACC00002204210E4800F0FEFF002208210C48F1
:100ADC0000F0F9FF01221021094800F0F4FF002278
:100AEC002021074800F0EFFF00224021044800F0CD
:100AFC00EAFF00E000BF00BF0837BD4680BD00BF65
:100B0C00000C014080B582B000AF786039608D4B2D
:100B1C001B68032B00F2D88001A252F823F000BF0F
:100B2C003D0B00089F0B00080B0C00086B0C000819
:100B3C007B68854A82FB03129210DB17D31A184686
:100B4C00FFF750FE00224FF48051804800F0BBFFAD
:100B5C0001224FF400517D4800F0B5FF01224FF403
:100B6C0080417A4800F0AFFF01224FF400417748F2
:100B7C0000F0A9FF022000F0D7FB0346002B00F089
:100B8C00D380704B01221A60FA21022000F07CFB0A
:100B9C00CAE07A686C4B83FB02139910D317C91AFD
:100BAC000B469B000B445B00D11A0846FFF71AFE5C
:100BBC0001224FF48051654800F085FF00224FF46C
:100BCC000051624800F07FFF01224FF480415F48E2
:100BDC0000F079FF01224FF400415C4800F073FFF4
:100BEC00022000F0A1FB0346002B00F09F80554B28
:100BFC0002221A60FA21022000F046FB96E03B68C4
:100C0C00514A82FB03129210DB17D31A1846FFF7D6
:100C1C00E9FD01224FF480514C4800F054FF0122B1
:100C2C004FF40051494800F04EFF00224FF4804130
:100C3C00464800F048FF01224FF40041434800F0C1
:100C4C0042FF022000F070FB0346002B70D03D4B9E
:100C5C0003221A60FA21022000F016FB68E03A68C1
:100C6C00394B83FB02139910D317C91A0B469B00FF
:100C7C000B445B00D11A0846FFF7B4FD01224FF478
:100C8C008051324800F01FFF01224FF400512F48D1
:100C9C0000F019FF01224FF480412C4800F013FFA3
:100CAC0000224FF40041294800F00DFF022000F013
:100CBC003BFB0346002B3DD0224B00221A60FA214D
:100CCC00022000F0E1FA35E07B681F4A82FB031238
:100CDC009210DB17D31A1846FFF784FD01224FF44C
:100CEC0080511A4800F0EFFE01224FF400511748D2
:100CFC0000F0E9FE01224FF48041144800F0E3FEBD
:100D0C0001224FF40041114800F0DDFE022000F0FA
:100D1C000BFB0346002B0FD00A4B00221A60FA2162
:100D2C00022000F0B1FA07E000BF06E000BF04E0CB
:100D3C0000BF02E000BF00E000BF00BF0837BD46A7
:100D4C0080BD00BF4800002067666666000C01404D
:100D5C0080B500AF01224FF48061084800F0B3FE6B
:100D6C0001224FF40061054800F0ADFE00224FF463
:100D7C008051024800F0A7FE00BF80BD0008014072
:100D8C0080B500AF01224FF48061084800F09BFE53
:100D9C0000224FF40061054800F095FE01224FF44B
:100DAC008051024800F08FFE00BF80BD000801405A
:100DBC0080B500AF00224FF48061084800F083FE3C
:100DCC0001224FF40061054800F07DFE01224FF432
:100DDC008051024800F077FE00BF80BD0008014042
:100DEC0080B500AF01224FF40051084800F06BFEB3
:100DFC0001224FF48041054800F065FE00224FF4BB
:100E0C000041024800F05FFE00BF80BD00080140B9
:100E1C0080B500AF01224FF40051084800F053FE9A
:100E2C0000224FF48041054800F04DFE01224FF4A2
:100E3C000041024800F047FE00BF80BD00080140A1
:100E4C0080B500AF00224FF40051084800F03BFE83
:100E5C0001224FF48041054800F035FE01224FF489
:100E6C000041024800F02FFE00BF80BD0008014089
:100E7C0080B500AF01224FF48061104800F023FED2
:100E8C0001224FF400610D4800F01DFE4FF480511B
:100E9C000A4800F030FE01224FF40051074800F0E0
:100EAC0012FE01224FF48041044800F00CFE4FF476
:100EBC000041024800F01FFE00BF80BD0008014049
:100ECC0080B500AF01224FF48061104800F0FBFDAB
:100EDC004FF400610D4800F00EFE01224FF48051DA
:100EEC000A4800F0F0FD01224FF40051074800F0D1
:100EFC00EAFD4FF48041054800F0FDFD01224FF45E
:100F0C000041024800F0DFFD00BF80BD0008014039
:100F1C0080B500AF4FF48061104800F0ECFD012269
:100F2C004FF400610D4800F0CEFD01224FF48051CA
:100F3C000A4800F0C8FD4FF40051084800F0DBFDF2
:100F4C0001224FF48041054800F0BDFD01224FF411
:100F5C000041024800F0B7FD00BF80BD0008014011
:100F6C0080B500AF394B1B68032B60D801A252F837
:100F7C0023F000BF910F0008BF0F0008ED0F000811
:100F8C001B100008FFF708FA0020FFF75FF9034673
:100F9C00002B52D02E4B1B682E4A13602B4B012278
:100FAC001A604FF4FA71002000F06EF9FFF7C8F8E0
:100FBC0043E0FFF7ABFB0020FFF748F90346002B9B
:100FCC003DD0254B1B68234A1360204B02221A602C
:100FDC004FF4FA71002000F057F9FFF7B1F82EE04A
:100FEC00FFF73AFB0020FFF731F90346002B28D01E
:100FFC001A4B1B68174A1360144B03221A604FF4E8
:10100C00FA71002000F040F9FFF79AF819E0FFF7A9
:10101C00C9FA0020FFF71AF90346002B13D00B4B2B
:10102C0000221A60FFF790F9FFF78AF80BE0074BE4
:10103C0000221A60FFF788F906E000BF04E000BF49
:10104C0002E000BF00E000BF00BF80BD4C000020EC
:10105C007C0000207400002078000020700000202C
:10106C0080B500AF00F02EFA00F00EF800F048F852
:10107C0000F092F8FFF734F9024801F081F9FFF71C
:10108C006FFFFCE78000002080B590B000AF07F147
:10109C00180328220021184601F022FD3B1D0022D6
:1010AC001A605A609A60DA601A610223BB610123EC
:1010BC00BB621023FB6200237B6307F11803184605
:1010CC0000F032FD0346002B01D000F0D8F80F23BE
:1010DC007B600023BB600023FB6000233B6100238B
:1010EC007B613B1D0021184600F09EFF0346002B40
:1010FC0001D000F0C4F800BF4037BD4680BD0000F1
:10110C0080B586B000AF07F1080300221A605A6060
:10111C009A60DA603B4600221A605A601D4B4FF011
:10112C0080421A601B4B41F63F725A60194B0022E9
:10113C009A60184B0922DA60164B00221A61154B83
:10114C0000229A61134801F0CBF80346002B01D022
:10115C0000F095F84FF48053BB6007F10803194673
:10116C000C4801F049FA0346002B01D000F087F837
:10117C0000233B6000237B603B461946054801F089
:10118C0021FC0346002B01D000F079F800BF183782
:10119C00BD4680BD8000002080B586B000AF07F151
:1011AC00080300221A605A609A60DA60284B9B6927
:1011BC00274A43F004039361254B9B6903F0040316
:1011CC007B607B68224B9B69214A43F00803936147
:1011DC001F4B9B6903F008033B603B6800224FF2F6
:1011EC007F211C4800F06FFC00224FF47C411A4810
:1011FC0000F069FC0E23BB600023FB6001233B6104
:10120C0007F108031946144800F0CCFA4FF27F237B
:10121C00BB600123FB6000233B6102237B6107F170
:10122C00080319460B4800F0BDFA4FF47C43BB6031
:10123C000123FB6000233B6102237B6107F1080360
:10124C001946054800F0AEFA00BF1837BD4680BD00
:10125C0000100240000C01400008014080B582B033
:10126C0000AF786000F030F87B681B68B3F1804FFA
:10127C0001D1FEF771FF00BF0837BD4680BD80B4B9
:10128C0000AF72B600BFFEE780B483B000AF7860E9
:10129C0039600A4A7B68002142F823103B68084AEF
:1012AC0082FB03129210DB17D21A06497B6841F8B5
:1012BC00232000BF0C37BD4680BC7047F0000020D7
:1012CC0067666666C800002080B483B000AF002358
:1012DC007B601CE0124A7B6852F82330002B08DD3F
:1012EC000F4A7B6852F823305A1E0D497B6841F82F
:1012FC0023200B4A7B6852F82330002B04DC094A6C
:10130C007B68012142F823107B6801337B607B688A
:10131C00092BDFDD00BF00BF0C37BD4680BC70471A
:10132C00C8000020F000002080B483B000AF7860CB
:10133C00094A7B6852F82330012B06D1064A7B6898
:10134C00002142F82310012300E0002318460C373B
:10135C00BD4680BC704700BFF000002080B485B053
:10136C0000AF154B9B69144A43F001039361124B78
:10137C009B6903F00103BB60BB680F4BDB690E4A32
:10138C0043F08053D3610C4BDB6903F080537B60DB
:10139C007B680A4B5B68FB60FB6823F0E063FB60D7
:1013AC00FB6843F08063FB60044AFB68536000BF3A
:1013BC001437BD4680BC704700100240000001404D
:1013CC0080B584B000AF78607B681B68B3F1804F48
:1013DC0013D10C4BDB690B4A43F00103D361094B6E
:1013EC00DB6903F00103FB60FB68002200211C2079
:1013FC0000F0A1F91C2000F0BAF900BF1037BD466F
:10140C0080BD00BF0010024080B400AFFEE780B486
:10141C0000AFFEE780B400AFFEE780B400AFFEE79C
:10142C0080B400AFFEE780B400AF00BFBD4680BC07
:10143C00704780B400AF00BFBD4680BC704780B41D
:10144C0000AF00BFBD4680BC704780B500AF00F058
:10145C007FF800BF80BD000080B500AF024800F0EF
:10146C00DBFF00BF80BD00BF8000002080B400AF58
:10147C0000BFBD4680BC7047FFF7F8FF0B480C4916
:10148C000C4A002302E0D458C4500433C4188C42D4
:10149C00F9D3094A094C002301E013600432A2423B
:1014AC00FBD301F0F9FAFFF7DBFD704700000020D9
:1014BC002C000020402B00082C0000201C010020D8
:1014CC00FEE7000080B500AF084B1B68074A43F0ED
:1014DC0010031360032000F023F90F2000F008F82C
:1014EC00FFF73CFF0023184680BD00BF00200240E0
:1014FC0080B582B000AF7860124B1A68124B1B7823
:10150C0019464FF47A73B3FBF1F3B2FBF3F31846BD
:10151C0000F03BF90346002B01D001230EE07B6861
:10152C000F2B0AD8002279684FF0FF3000F003F936
:10153C00064A7B681360002300E001231846083735
:10154C00BD4680BD20000020280000202400002083
:10155C0080B400AF054B1B781A46054B1B6813442F
:10156C00034A136000BFBD4680BC704728000020B2
:10157C001801002080B400AF024B1B681846BD4612
:10158C0080BC70471801002080B485B000AF786033
:10159C007B6803F00703FB600C4BDB68BB60BA682D
:1015AC004FF6FF031340BB60FB681A02BB68134382
:1015BC0043F0BF6343F40033BB60044ABB68D360A1
:1015CC0000BF1437BD4680BC704700BF00ED00E083
:1015DC0080B400AF044BDB681B0A03F0070318460A
:1015EC00BD4680BC704700BF00ED00E080B483B006
:1015FC0000AF0346FB7197F90730002B0BDBFB792F
:10160C0003F01F02064997F907305B09012000FA25
:10161C0002F241F8232000BF0C37BD4680BC704756
:10162C0000E100E080B483B000AF03463960FB7189
:10163C0097F90730002B0ADB3B68DAB20C4997F9B3
:10164C0007301201D2B20B4483F800230AE03B6846
:10165C00DAB20849FB7903F00F03043B1201D2B252
:10166C000B441A7600BF0C37BD4680BC704700BFD8
:10167C0000E100E000ED00E080B489B000AFF8605C
:10168C00B9607A60FB6803F00703FB61FB69C3F187
:10169C000703042B28BF0423BB61FB690433062B0F
:1016AC0002D9FB69033B00E000237B614FF0FF3262
:1016BC00BB6902FA03F3DA43BB681A407B699A40B0
:1016CC004FF0FF317B6901FA03F3D9437B680B4080
:1016DC00134318462437BD4680BC704780B582B092
:1016EC0000AF78607B68013BB3F1807F01D30123AD
:1016FC000FE00A4A7B68013B53600F214FF0FF302B
:10170C00FFF790FF054B00229A60044B07221A60EA
:10171C00002318460837BD4680BD00BF10E000E02E
:10172C0080B582B000AF78607868FFF72DFF00BFFE
:10173C000837BD4680BD80B586B000AF0346B960A2
:10174C007A60FB7300237B61FFF742FF78617A6854
:10175C00B9687869FFF790FF024697F90F30114688
:10176C001846FFF75FFF00BF1837BD4680BD80B538
:10177C0082B000AF0346FB7197F907301846FFF7AC
:10178C0035FF00BF0837BD4680BD80B582B000AFC5
:10179C0078607868FFF7A2FF034618460837BD4605
:1017AC0080BD000080B48BB000AF7860396000233E
:1017BC007B6200233B6248E101227B6A02FA03F35D
:1017CC00FB613B681B68FA691340BB61BA69FB6932
:1017DC009A4240F037813B685B68A34A93425ED0E3
:1017EC00A14A934275D8A14A934258D09F4A93423A
:1017FC006FD89F4A934252D09D4A934269D89D4AD2
:10180C0093424CD09B4A934263D89B4A934246D016
:10181C00994A93425DD8122B2AD8122B59D801A27F
:10182C0052F823F0AB180008851800089718000828
:10183C00D9180008DF180008DF180008DF180008A6
:10184C00DF180008DF180008DF180008DF18000890
:10185C00DF180008DF180008DF180008DF18000880
:10186C00DF180008DF1800088D180008A118000800
:10187C00824A934213D02CE03B68DB683B6229E040
:10188C003B68DB6804333B6224E03B68DB6808336D
:10189C003B621FE03B68DB680C333B621AE03B6841
:1018AC009B68002B02D104233B6213E03B689B68CE
:1018BC00012B05D108233B627B68FA691A6109E0A8
:1018CC0008233B627B68FA695A6103E000233B62A0
:1018DC0000E000BFBB69FF2B01D87B6801E07B688F
:1018EC0004337B61BB69FF2B02D87B6A9B0002E04F
:1018FC007B6A083B9B003B617B691A680F213B6943
:10190C0001FA03F3DB431A40396A3B6901FA03F32A
:10191C001A437B691A603B685B6803F08053002BA9
:10192C0000F09080564B9B69554A43F0010393613C
:10193C00534B9B6903F00103BB60BB68514A7B6A44
:10194C009B08023352F82330FB607B6A03F00303DD
:10195C009B000F2202FA03F3DB43FA681340FB608F
:10196C007B68494A93420DD07B68484A934207D022
:10197C007B68474A934201D1022304E0032302E02F
:10198C00012300E000237A6A02F0030292009340E4
:10199C00FA681343FB603B497B6A9B080233FA6885
:1019AC0041F823203B685B6803F48013002B06D0BE
:1019BC00384B9A683749BB6913438B6006E0354B4B
:1019CC009A68BB69DB43334913408B603B685B68A7
:1019DC0003F40013002B06D02E4BDA682D49BB699B
:1019EC001343CB6006E02B4BDA68BB69DB43294918
:1019FC001340CB603B685B6803F40033002B06D0CC
:101A0C00244B5A682349BB6913434B6006E0214BB6
:101A1C005A68BB69DB431F4913404B603B685B68EA
:101A2C0003F48033002B06D01A4B1A681949BB6992
:101A3C0013430B6006E0174B1A68BB69DB4315496F
:101A4C0013400B607B6A01337B623B681A687B6ACC
:101A5C0022FA03F3002B7FF4AFAE00BF00BF2C378C
:101A6C00BD4680BC704700BF000032100000311032
:101A7C0000002210000021100000121000001110B4
:101A8C00001002400000014000080140000C014021
:101A9C00001001400004014080B485B000AF7860B4
:101AAC000B467B807B689A687B881340002B02D0A6
:101ABC000123FB7301E00023FB73FB7B18461437F7
:101ACC00BD4680BC704780B483B000AF78600B46D5
:101ADC007B8013467B707B78002B03D07A887B68E5
:101AEC001A6103E07B881A047B681A6100BF0C370B
:101AFC00BD4680BC704780B485B000AF78600B46A3
:101B0C007B807B68DB68FB607A88FB6813401A0477
:101B1C00FB68D9437B880B401A437B681A6100BF72
:101B2C001437BD4680BC704780B586B000AF786076
:101B3C007B68002B01D101236CE27B681B6803F0EE
:101B4C000103002B00F08780924B5B6803F00C03C1
:101B5C00042B0CD08F4B5B6803F00C03082B12D1B9
:101B6C008C4B5B6803F48033B3F5803F0BD1894B0E
:101B7C001B6803F40033002B6CD07B685B68002B74
:101B8C0068D1012346E27B685B68B3F5803F06D1E0
:101B9C00804B1B687F4A43F4803313602EE07B68D4
:101BAC005B68002B0CD17B4B1B687A4A23F4803387
:101BBC001360784B1B68774A23F4802313601DE075
:101BCC007B685B68B3F5A02F0CD1724B1B68714A14
:101BDC0043F4802313606F4B1B686E4A43F48033CD
:101BEC0013600BE06B4B1B686A4A23F48033136061
:101BFC00684B1B68674A23F4802313607B685B681F
:101C0C00002B13D0FFF7B6FC386108E0FFF7B2FCED
:101C1C0002463B69D31A642B01D90323FAE15D4BCD
:101C2C001B6803F40033002BF0D014E0FFF7A2FC88
:101C3C00386108E0FFF79EFC02463B69D31A642B1F
:101C4C0001D90323E6E1534B1B6803F40033002B4B
:101C5C00F0D100E000BF7B681B6803F00203002B8F
:101C6C0063D04C4B5B6803F00C03002B0BD0494B3F
:101C7C005B6803F00C03082B1CD1464B5B6803F428
:101C8C008033002B16D1434B1B6803F00203002B4F
:101C9C0005D07B681B69012B01D00123BAE13D4BB8
:101CAC001B6823F0F8027B685B69DB00394913433E
:101CBC000B603AE07B681B69002B20D0364B01226D
:101CCC001A60FFF757FC386108E0FFF753FC024637
:101CDC003B69D31A022B01D903239BE12D4B1B68C3
:101CEC0003F00203002BF0D02A4B1B6823F0F80200
:101CFC007B685B69DB00274913430B6015E0264BBF
:101D0C0000221A60FFF736FC386108E0FFF732FC5E
:101D1C0002463B69D31A022B01D903237AE11D4BEE
:101D2C001B6803F00203002BF0D17B681B6803F0E7
:101D3C000803002B3AD07B689B69002B19D0174BFA
:101D4C0001221A60FFF716FC386108E0FFF712FC5D
:101D5C0002463B69D31A022B01D903235AE10D4BDE
:101D6C005B6A03F00203002BF0D0012000F09AFA1A
:101D7C001CE00A4B00221A60FFF7FCFB38610FE0F5
:101D8C00FFF7F8FB02463B69D31A022B08D9032351
:101D9C0040E100BF00100240000042428004424279
:101DAC009E4B5B6A03F00203002BE9D17B681B6836
:101DBC0003F00403002B00F0A6800023FB75974B67
:101DCC00DB6903F08053002B0DD1944BDB69934AF4
:101DDC0043F08053D361914BDB6903F08053BB60BC
:101DEC00BB680123FB758E4B1B6803F48073002BBF
:101DFC0018D18B4B1B688A4A43F480731360FFF72E
:101E0C00B9FB386108E0FFF7B5FB02463B69D31A12
:101E1C00642B01D90323FDE0814B1B6803F4807311
:101E2C00002BF0D07B68DB68012B06D17B4B1B6A47
:101E3C007A4A43F0010313622DE07B68DB68002BC8
:101E4C000CD1764B1B6A754A23F001031362734B5A
:101E5C001B6A724A23F0040313621CE07B68DB6884
:101E6C00052B0CD16D4B1B6A6C4A43F004031362B7
:101E7C006A4B1B6A694A43F0010313620BE0674B20
:101E8C001B6A664A23F001031362644B1B6A634AA4
:101E9C0023F0040313627B68DB68002B15D0FFF77B
:101EAC0069FB38610AE0FFF765FB02463B69D31A10
:101EBC0041F28832934201D90323ABE0574B1B6AA2
:101ECC0003F00203002BEED014E0FFF753FB386154
:101EDC000AE0FFF74FFB02463B69D31A41F2883206
:101EEC00934201D9032395E04C4B1B6A03F0020388
:101EFC00002BEED1FB7D012B05D1484BDB69474A0A
:101F0C0023F08053D3617B68DB69002B00F0818068
:101F1C00424B5B6803F00C03082B61D07B68DB69D8
:101F2C00022B46D13F4B00221A60FFF723FB38618E
:101F3C0008E0FFF71FFB02463B69D31A022B01D9BD
:101F4C00032367E0354B1B6803F00073002BF0D1C3
:101F5C007B681B6AB3F5803F08D1304B5B6823F478
:101F6C0000327B689B682D4913434B602B4B5B689D
:101F7C0023F474127B68196A7B685B6A0B432749EC
:101F8C0013434B60274B01221A60FFF7F3FA3861B9
:101F9C0008E0FFF7EFFA02463B69D31A022B01D98E
:101FAC00032337E01D4B1B6803F00073002BF0D0AC
:101FBC002FE01C4B00221A60FFF7DCFA386108E0B6
:101FCC00FFF7D8FA02463B69D31A022B01D9032337
:101FDC0020E0124B1B6803F00073002BF0D118E0CB
:101FEC007B68DB69012B01D1012313E00B4B5B6890
:101FFC00FB60FB6803F480327B681B6A9A4206D153
:10200C00FB6803F470127B685B6A9A4201D001236F
:10201C0000E0002318461837BD4680BD0010024072
:10202C00007000406000424280B584B000AF786020
:10203C0039607B68002B01D10123D0E06A4B1B680F
:10204C0003F007033A689A4210D9674B1B6823F0D8
:10205C00070265493B6813430B60634B1B6803F035
:10206C0007033A689A4201D00123B8E07B681B68E9
:10207C0003F00203002B20D07B681B6803F00403E1
:10208C00002B05D0594B5B68584A43F4E06353600E
:10209C007B681B6803F00803002B05D0534B5B686F
:1020AC00524A43F460535360504B5B6823F0F00288
:1020BC007B689B684D4913434B607B681B6803F03E
:1020CC000103002B40D07B685B68012B07D1474B89
:1020DC001B6803F40033002B15D101237FE07B68D0
:1020EC005B68022B07D1414B1B6803F00073002B7C
:1020FC0009D1012373E03D4B1B6803F00203002B55
:10210C0001D101236BE0394B5B6823F003027B6840
:10211C005B68364913434B60FFF72CFAF8600AE012
:10212C00FFF728FA0246FB68D31A41F28832934231
:10213C0001D9032353E02D4B5B6803F00C027B6841
:10214C005B689B009A42EBD1274B1B6803F007039B
:10215C003A689A4210D2244B1B6823F0070222499A
:10216C003B6813430B60204B1B6803F007033A6872
:10217C009A4201D0012332E07B681B6803F0040310
:10218C00002B08D0194B5B6823F4E0627B68DB689A
:10219C00164913434B607B681B6803F00803002B44
:1021AC0009D0124B5B6823F460527B681B69DB001F
:1021BC000E4913434B6000F021F802460B4B5B6851
:1021CC001B0903F00F030A49CB5C22FA03F3094AFB
:1021DC001360094B1B681846FFF78AF90023184651
:1021EC001037BD4680BD00BF0020024000100240E9
:1021FC00142B0008200000202400002080B487B09D
:10220C0000AF0023FB600023BB6000237B61002335
:10221C007B6000233B611E4B5B68FB60FB6803F03B
:10222C000C03042B02D0082B03D027E0194B3B6185
:10223C0027E0FB689B0C03F00F03174AD35C7B6011
:10224C00FB6803F48033002B10D0114B5B685B0CE4
:10225C0003F00103114AD35CBB607B680D4A02FB9F
:10226C0003F2BB68B2FBF3F37B6104E07B680C4ABE
:10227C0002FB03F37B617B693B6102E0054B3B6135
:10228C0000BF3B6918461C37BD4680BC704700BF79
:10229C000010024000127A00242B0008342B000896
:1022AC0000093D0080B485B000AF78600A4B1B6814
:1022BC000A4AA2FB03235B0A7A6802FB03F3FB6066
:1022CC0000BFFB685A1EFA60002BF9D100BF00BF9B
:1022DC001437BD4680BC704720000020D34D6210DF
:1022EC0080B582B000AF78607B68002B01D10123F0
:1022FC0041E07B6893F83D30DBB2002B06D17B6864
:10230C00002283F83C207868FFF75AF87B68022299
:10231C0083F83D207B681A687B68043319461046A5
:10232C0000F056FA7B68012283F846207B68012274
:10233C0083F83E207B68012283F83F207B680122D2
:10234C0083F840207B68012283F841207B680122BE
:10235C0083F842207B68012283F843207B680122AA
:10236C0083F844207B68012283F845207B68012296
:10237C0083F83D20002318460837BD4680BD000079
:10238C0080B485B000AF78607B6893F83D30DBB2E9
:10239C00012B01D0012335E07B68022283F83D201C
:1023AC007B681B68DA687B681B6842F00102DA60A4
:1023BC007B681B68164A934209D07B681B68B3F193
:1023CC00804F04D07B681B68124A934211D17B6802
:1023DC001B689B6803F00703FB60FB68062B10D09F
:1023EC007B681B681A687B681B6842F001021A60E4
:1023FC0007E07B681B681A687B681B6842F0010267
:10240C001A60002318461437BD4680BC704700BFC5
:10241C00002C01400004004080B584B000AF78600F
:10242C007B681B68DB68FB607B681B681B69BB6097
:10243C00BB6803F00203002B20D0FB6803F00203FF
:10244C00002B1BD07B681B686FF002021A617B6843
:10245C0001221A777B681B689B6903F00303002B2E
:10246C0003D0786800F098F905E0786800F08BF9F3
:10247C00786800F09AF97B6800221A77BB6803F041
:10248C000403002B20D0FB6803F00403002B1BD0AB
:10249C007B681B686FF004021A617B6802221A7752
:1024AC007B681B689B6903F44073002B03D078682E
:1024BC0000F072F905E0786800F065F9786800F0D2
:1024CC0074F97B6800221A77BB6803F00803002BB1
:1024DC0020D0FB6803F00803002B1BD07B681B6823
:1024EC006FF008021A617B6804221A777B681B68FC
:1024FC00DB6903F00303002B03D0786800F04CF980
:10250C0005E0786800F03FF9786800F04EF97B68D8
:10251C0000221A77BB6803F01003002B20D0FB6855
:10252C0003F01003002B1BD07B681B686FF01002AC
:10253C001A617B6808221A777B681B68DB6903F4D5
:10254C004073002B03D0786800F026F905E078681A
:10255C0000F019F9786800F028F97B6800221A77E6
:10256C00BB6803F00103002B0CD0FB6803F00103E4
:10257C00002B07D07B681B686FF001021A6178682A
:10258C00FEF76CFEBB6803F08003002B0CD0FB68DD
:10259C0003F08003002B07D07B681B686FF0800270
:1025AC001A61786800F06FFABB6803F04003002BE7
:1025BC000CD0FB6803F04003002B07D07B681B6832
:1025CC006FF040021A61786800F0F8F8BB6803F00D
:1025DC002003002B0CD0FB6803F02003002B07D04A
:1025EC007B681B686FF020021A61786800F042FA71
:1025FC0000BF1037BD4680BD80B584B000AF786099
:10260C0039600023FB737B6893F83C30012B01D1BC
:10261C000223B4E07B68012283F83C207B68022211
:10262C0083F83D207B681B689B68BB60BB6823F00C
:10263C007703BB60BB6823F47F43BB607B681B687C
:10264C00BA689A603B681B68B3F5005F3ED0B3F57F
:10265C00005F00F28780B3F5805F00F08680B3F5F1
:10266C00805F7FD8702B1AD0702B7BD8602B50D00A
:10267C00602B77D8502B3CD0502B73D8402B58D094
:10268C00402B6FD8302B64D0302B6BD8202B60D0E4
:10269C00202B67D8002B5CD0102B5AD062E07B68C3
:1026AC0018683B6899683B685A683B68DB6800F0BF
:1026BC006AF97B681B689B68BB60BB6843F0770357
:1026CC00BB607B681B68BA689A604FE07B681868CF
:1026DC003B6899683B685A683B68DB6800F053F9C3
:1026EC007B681B689A687B681B6842F480429A601E
:1026FC003CE07B6818683B6859683B68DB681A46A5
:10270C0000F0CAF87B681B685021184600F021F9CC
:10271C002CE07B6818683B6859683B68DB681A4694
:10272C0000F0E8F87B681B686021184600F011F98E
:10273C001CE07B6818683B6859683B68DB681A4684
:10274C0000F0AAF87B681B684021184600F001F9DC
:10275C000CE07B681A683B681B681946104600F051
:10276C00F8F803E00123FB7300E000BF7B68012253
:10277C0083F83D207B68002283F83C20FB7B1846C5
:10278C001037BD4680BD80B483B000AF786000BF09
:10279C000C37BD4680BC704780B483B000AF786006
:1027AC0000BF0C37BD4680BC704780B483B000AF0F
:1027BC00786000BF0C37BD4680BC704780B483B0D6
:1027CC0000AF786000BF0C37BD4680BC704700007E
:1027DC0080B485B000AF786039607B681B68FB60A3
:1027EC007B682B4A934207D07B68B3F1804F03D0B0
:1027FC007B68284A934208D1FB6823F07003FB6086
:10280C003B685B68FA681343FB607B68204A934221
:10281C0007D07B68B3F1804F03D07B681D4A93428D
:10282C0008D1FB6823F44073FB603B68DB68FA68F3
:10283C001343FB60FB6823F080023B685B69134326
:10284C00FB607B68FA681A603B689A687B68DA629E
:10285C003B681A687B689A627B680D4A934203D185
:10286C003B681A697B681A637B6801225A617B6832
:10287C001B6903F00103002B05D07B681B6923F057
:10288C0001027B681A6100BF1437BD4680BC7047DB
:10289C00002C01400004004080B487B000AFF86009
:1028AC00B9607A60FB681B6A7B61FB681B6A23F06A
:1028BC000102FB681A62FB689B693B613B6923F070
:1028CC00F0033B617B681B013A6913433B617B69F5
:1028DC0023F00A037B617A69BB6813437B61FB6855
:1028EC003A699A61FB687A691A6200BF1C37BD4667
:1028FC0080BC704780B487B000AFF860B9607A6074
:10290C00FB681B6A7B61FB681B6A23F01002FB6887
:10291C001A62FB689B693B613B6923F470433B6122
:10292C007B681B033A6913433B617B6923F0A0036B
:10293C007B61BB681B017A6913437B61FB683A6955
:10294C009A61FB687A691A6200BF1C37BD4680BC6D
:10295C00704780B485B000AF786039607B689B6845
:10296C00FB60FB6823F07003FB603A68FB68134361
:10297C0043F00703FB607B68FA689A6000BF14376A
:10298C00BD4680BC704780B487B000AFF860B960BA
:10299C007A603B60FB689B687B617B6923F47F43B7
:1029AC007B613B681A027B681A43BB6813437A69E4
:1029BC0013437B61FB687A699A6000BF1C37BD4684
:1029CC0080BC704780B485B000AF786039607B689C
:1029DC0093F83C30012B01D1022341E07B680122AA
:1029EC0083F83C207B68022283F83D207B681B68BF
:1029FC005B68FB607B681B689B68BB60FB6823F0B3
:102A0C007003FB603B681B68FA681343FB607B68D0
:102A1C001B68FA685A607B681B68144A934209D099
:102A2C007B681B68B3F1804F04D07B681B68104A2D
:102A3C0093420CD1BB6823F08003BB603B685B689E
:102A4C00BA681343BB607B681B68BA689A607B6882
:102A5C00012283F83D207B68002283F83C20002370
:102A6C0018461437BD4680BC704700BF002C01408F
:102A7C000004004080B483B000AF786000BF0C3716
:102A8C00BD4680BC704780B483B000AF786000BF97
:102A9C000C37BD4680BC704770B500260C4D0D4CF4
:102AAC00641BA410A64209D100F022F800260A4D9E
:102ABC000A4C641BA410A64205D170BD55F8043B0A
:102ACC0098470136EEE755F8043B98470136F2E794
:102ADC00382B0008382B0008382B00083C2B00083A
:102AEC0003460244934200D1704703F8011BF9E7F7
:102AFC00F8B500BFF8BC08BC9E467047F8B500BFDF
:082B0C00F8BC08BC9E467047AE
:102B14000000000000000000010203040607080989
:102B240002030405060708090A0B0C0D0E0F10100A
:042B3400010200009A
:042B3800310100085F
:042B3C000D0100087F
:102B40000101010001000000010000000008014037
:102B500000080140000801400200040008000000D5
:0C2B600000127A001000000001000000CC
:040000050800148556
:00000001FF
