:020000040800F2
:100000000028002031140008C1130008C71300089D
:10001000CD130008D3130008D91300080000000016
:10002000000000000000000000000000DF130008D6
:10003000EB13000800000000F71300080314000889
:10004000791400087914000879140008791400085C
:10005000791400087914000879140008791400084C
:10006000791400087914000879140008791400083C
:10007000791400087914000879140008791400082C
:10008000791400087914000879140008791400081C
:10009000791400087914000879140008791400080C
:1000A00079140008791400087914000879140008FC
:1000B00011140008791400080000000079140008E9
:1000C0007914000800000000000000007914000806
:1000D00000000000791400087914000800000000F6
:1000E0007914000879140008791400080000000051
:1000F0000000000000000000000000000000000000
:0C01000000000000000000005FF808F1A3
:10010C0010B5054C237833B9044B13B10448AFF345
:10011C0000800123237010BD2C0000200000000083
:10012C00A82A000808B5034B1BB103490348AFF3D9
:10013C00008008BD0000000030000020A82A000844
:10014C0080B500AF4FF40071024801F0AAFC00BF6B
:10015C0080BD00BF000C014080B582B000AF002311
:10016C007B605DE0324A7B6813441978314A7B68C6
:10017C0013440A461A70304A7B6852F823202F49E0
:10018C007B6831F813301946104601F05BFC0346CE
:10019C001946274A7B6813440A461A70244A7B681E
:1001AC0013441A7823497B680B441B789A4208D174
:1001BC001F4A7B6813441978214A7B6813440A460A
:1001CC001A701F4A7B6813441B78002B1BD11D4AE5
:1001DC007B6832F81330312B0FD81A4A7B6832F80F
:1001EC001330013399B2174A7B6822F813104FF47D
:1001FC00FA71032001F01EF80FE0134A7B681344D8
:10020C0001221A7009E00F4A7B68002122F81310B2
:10021C000D4A7B68134400221A707B6801337B60A3
:10022C007B68022B9ED900BF00BF0837BD4680BD3E
:10023C0004000020080000200C0000201800002002
:10024C00000000204C0000205400002080B483B03B
:10025C0000AF78607B68022B01D9002313E00C4AB5
:10026C007B6813441B78002B0CD10A4A7B6832F84C
:10027C001330012B06D8064A7B68134401221A70EE
:10028C00012300E0002318460C37BD4680BC7047A4
:10029C00000000204C00002080B582B000AF7860D8
:1002AC007B68022B01D9002313E0032001F012F824
:1002BC000346002B0CD0094A7B6813441B78012B96
:1002CC0006D14FF4FA71032000F0B4FF012300E0D3
:1002DC00002318460837BD4680BD00BF54000020DF
:1002EC0080B500AF114B03221A60114B02221A6029
:1002FC00104B05221A60104B00221A600D4B1B6824
:10030C000E4A13600E4B01221A60084B1B680D4AF3
:10031C0013604FF47A71002000F08CFF4FF47A7167
:10032C00012000F087FF00BF80BD00BF6C000020E3
:10033C007400002078000020680000206400002079
:10034C00600000205C00002080B500AF0C4B002248
:10035C001A600C4B1B680C4A13600C4B01221A6080
:10036C000B4B1B680B4A13604FF47A71002000F0A2
:10037C0061FF4FF47A71012000F05CFF00BF80BD7B
:10038C00680000207800002064000020600000203D
:10039C006C0000205C00002080B500AF7A4B1B681D
:1003AC007A4A12681146184600F08EFB784B1B688F
:1003BC00022B23D0022B5DDC002B3DD0012B59D11D
:1003CC0000F0A8FC002000F085FF0346002B09D0AC
:1003DC004FF47A71002000F02DFF6B4B1B68013B32
:1003EC00694A1360684B1B68002B50DC694B1B6817
:1003FC00654A1360664B02221A6048E000F0A2FCCA
:10040C00002000F067FF0346002B09D04FF47A71EF
:10041C00002000F00FFF5C4B1B68013B5A4A136035
:10042C00594B1B68002B34DC5B4B1B68564A136022
:10043C00574B00221A602CE000F09CFC002000F0CE
:10044C0049FF0346002B09D04FF47A71002000F0CD
:10045C00F1FE4D4B1B68013B4B4A13604A4B1B682A
:10046C00002B18DC4D4B1B68474A1360484B01228C
:10047C001A6010E0464B00221A60474B1B68424A38
:10048C0013604FF47A71002000F0D4FE04E000BF3A
:10049C0002E000BF00E000BF414B1B68022B23D0E1
:1004AC00022B5DDC002B3DD0012B59D100F07AFCE6
:1004BC00012000F00FFF0346002B09D04FF47A7196
:1004CC00012000F0B7FE314B1B68013B2F4A136033
:1004DC002E4B1B68002B50DC2E4B1B682B4A1360D9
:1004EC002F4B02221A6048E000F074FC012000F04F
:1004FC00F1FE0346002B09D04FF47A71012000F075
:10050C0099FE224B1B68013B204A13601F4B1B6852
:10051C00002B34DC204B1B681C4A1360204B002240
:10052C001A602CE000F06EFC012000F0D3FE0346B4
:10053C00002B09D04FF47A71012000F07BFE134B95
:10054C001B68013B114A1360104B1B68002B18DC15
:10055C00124B1B680D4A1360114B01221A6010E0FC
:10056C000F4B00221A600C4B1B68084A13604FF4A7
:10057C007A71012000F05EFE04E000BF02E000BFD3
:10058C0000E000BF00BF80BD640000205C000020C4
:10059C006800002074000020780000206C0000200F
:1005AC006000002080B500AF002000F093FE0346F1
:1005BC00002B06D000F03EFC4FF4FA71002000F046
:1005CC0039FE204B1B681946042000F07DFA0120EF
:1005DC00FFF762FE0346002B13D01A4B1B685A1C04
:1005EC00194B83FB02135911D317CB1A642101FB4E
:1005FC0003F3D31A134A13604FF4FA71032000F07B
:10060C0019FE0120FFF722FE0346002B0ED00D4BE6
:10061C001B685A1C0C4B83FB02135911D317CB1AB2
:10062C00642101FB03F3D31A064A13600220FFF77F
:10063C000DFE0346002B03D0024B1B68034A1360CC
:10064C0000BF80BD700000201F85EB516C000020A6
:10065C0080B500AF002000F03DFE0346002B06D015
:10066C0000F010FC4FF4FA71002000F0E3FD204B79
:10067C001B681946032000F027FA0120FFF70CFE37
:10068C000346002B13D01A4B1B685A1C194B83FBC7
:10069C0002135911D317CB1A642101FB03F3D31A9C
:1006AC00134A13604FF4FA71032000F0C3FD0120CC
:1006BC00FFF7CCFD0346002B0ED00D4B1B685A1CCC
:1006CC000C4B83FB02135911D317CB1A642101FB7A
:1006DC0003F3D31A064A13600220FFF7B7FD034653
:1006EC00002B03D0024B1B68034A136000BF80BD74
:1006FC00700000201F85EB517400002080B500AF06
:10070C00002000F0E7FD0346002B06D000F0E2FBD2
:10071C004FF4FA71002000F08DFD204B1B68194638
:10072C00022000F0D1F90120FFF7B6FD0346002BA3
:10073C0013D01A4B1B685A1C194B83FB021359110B
:10074C00D317CB1A642101FB03F3D31A134A13609A
:10075C004FF4FA71032000F06DFD0120FFF776FDD8
:10076C000346002B0ED00D4B1B685A1C0C4B83FB05
:10077C0002135911D317CB1A642101FB03F3D31ABB
:10078C00064A13600220FFF761FD0346002B03D0DD
:10079C00024B1B68034A136000BF80BD7000002031
:1007AC001F85EB517800002080B582B000AF7860D7
:1007BC007B68092B00F2808101A252F823F000BF64
:1007CC00F50700083D08000885080008CD0800085A
:1007DC00150900085D090008A5090008ED090008C5
:1007EC00350A00087D0A000800220121B54801F0F5
:1007FC0040F900220221B34801F03BF90022042108
:10080C00B04801F036F900220821AE4801F031F968
:10081C0000221021AB4801F02CF900222021A9481C
:10082C0001F027F901224021A64801F022F944E108
:10083C0001220121A34801F01CF900220221A14848
:10084C0001F017F9002204219E4801F012F901224F
:10085C0008219C4801F00DF901221021994801F062
:10086C0008F901222021974801F003F901224021C7
:10087C00944801F0FEF820E100220121914801F09A
:10088C00F8F8002202218F4801F0F3F8012204212C
:10089C008C4801F0EEF8002208218A4801F0E9F8B2
:1008AC0000221021874801F0E4F80122202185481C
:1008BC0001F0DFF800224021824801F0DAF8FCE078
:1008CC00002201217F4801F0D4F8002202217D484A
:1008DC0001F0CFF8002204217A4801F0CAF8002276
:1008EC000821784801F0C5F801221021754801F063
:1008FC00C0F801222021734801F0BBF800224021EE
:10090C00704801F0B6F8D8E0012201216D4801F0E1
:10091C00B0F8002202216B4801F0ABF80022042150
:10092C00684801F0A6F801220821664801F0A1F8F8
:10093C0001221021634801F09CF80022202161481B
:10094C0001F097F8002240215E4801F092F8B4E0E3
:10095C00002201215B4801F08CF801220221594848
:10096C0001F087F800220421564801F082F8002299
:10097C000821544801F07DF801221021514801F062
:10098C0078F8002220214F4801F073F80022402112
:10099C004C4801F06EF890E000220121494801F02A
:1009AC0068F801220221474801F063F80022042173
:1009BC00444801F05EF800220821424801F059F841
:1009CC00002210213F4801F054F8002220213D481C
:1009DC0001F04FF8002240213A4801F04AF86CE04F
:1009EC0000220121374801F044F800220221354849
:1009FC0001F03FF800220421324801F03AF80122BC
:100A0C000821304801F035F8012210212D4801F061
:100A1C0030F8012220212B4801F02BF80122402133
:100A2C00284801F026F848E000220121254801F071
:100A3C0020F800220221234801F01BF80022042197
:100A4C00204801F016F8002208211E4801F011F888
:100A5C00002210211B4801F00CF80022202119481B
:100A6C0001F007F800224021164801F002F824E0BA
:100A7C0000220121134800F0FCFF00220221114842
:100A8C0000F0F7FF002204210E4800F0F2FF0022D4
:100A9C0008210C4800F0EDFF01221021094800F05C
:100AAC00E8FF00222021074800F0E3FF002240214C
:100ABC00044800F0DEFF00E000BF00BF0837BD4671
:100ACC0080BD00BF000C014080B582B000AF7860E3
:100ADC0039608D4B1B68032B00F2D88001A252F8B1
:100AEC0023F000BF010B0008630B0008CF0B0008BC
:100AFC002F0C00087B68854A82FB03129210DB17CF
:100B0C00D31A1846FFF750FE00224FF4805180484C
:100B1C0000F0AFFF01224FF400517D4800F0A9FF17
:100B2C0001224FF480417A4800F0A3FF01224FF4D8
:100B3C000041774800F09DFF022000F0CBFB0346FC
:100B4C00002B00F0D380704B01221A60FA21022096
:100B5C0000F070FBCAE07A686C4B83FB02139910AF
:100B6C00D317C91A0B469B000B445B00D11A0846DD
:100B7C00FFF71AFE01224FF48051654800F079FF0F
:100B8C0000224FF40051624800F073FF01224FF431
:100B9C0080415F4800F06DFF01224FF400415C483A
:100BAC0000F067FF022000F095FB0346002B00F0DD
:100BBC009F80554B02221A60FA21022000F03AFB6A
:100BCC0096E03B68514A82FB03129210DB17D31A52
:100BDC001846FFF7E9FD01224FF480514C4800F014
:100BEC0048FF01224FF40051494800F042FF002217
:100BFC004FF48041464800F03CFF01224FF4004185
:100C0C00434800F036FF022000F064FB0346002B43
:100C1C0070D03D4B03221A60FA21022000F00AFB2F
:100C2C0068E03A68394B83FB02139910D317C91A41
:100C3C000B469B000B445B00D11A0846FFF7B4FD32
:100C4C0001224FF48051324800F013FF01224FF47F
:100C5C0000512F4800F00DFF01224FF480412C4829
:100C6C0000F007FF00224FF40041294800F001FF7B
:100C7C00022000F02FFB0346002B3DD0224B00221C
:100C8C001A60FA21022000F0D5FA35E07B681F4A81
:100C9C0082FB03129210DB17D31A1846FFF784FD60
:100CAC0001224FF480511A4800F0E3FE01224FF468
:100CBC000051174800F0DDFE01224FF4804114482A
:100CCC0000F0D7FE01224FF40041114800F0D1FE94
:100CDC00022000F0FFFA0346002B0FD00A4B002233
:100CEC001A60FA21022000F0A5FA07E000BF06E026
:100CFC0000BF04E000BF02E000BF00E000BF00BF87
:100D0C000837BD4680BD00BF480000206766666698
:100D1C00000C014080B500AF01224FF480610848FF
:100D2C0000F0A7FE01224FF40061054800F0A1FE7F
:100D3C0000224FF48051024800F09BFE00BF80BDA2
:100D4C000008014080B500AF01224FF480610848D3
:100D5C0000F08FFE00224FF40061054800F089FE80
:100D6C0001224FF48051024800F083FE00BF80BD89
:100D7C000008014080B500AF00224FF480610848A4
:100D8C0000F077FE01224FF40061054800F071FE7F
:100D9C0001224FF48051024800F06BFE00BF80BD71
:100DAC000008014080B500AF01224FF40051084803
:100DBC0000F05FFE01224FF48041054800F059FE1F
:100DCC0000224FF40041024800F053FE00BF80BDEA
:100DDC000008014080B500AF01224FF400510848D3
:100DEC0000F047FE00224FF48041054800F041FE20
:100DFC0001224FF40041024800F03BFE00BF80BDD1
:100E0C000008014080B500AF00224FF400510848A3
:100E1C0000F02FFE01224FF48041054800F029FE1E
:100E2C0001224FF40041024800F023FE00BF80BDB8
:100E3C000008014080B500AF01224FF480611048DA
:100E4C0000F017FE01224FF400610D4800F011FE76
:100E5C004FF480510A4800F024FE01224FF4005157
:100E6C00074800F006FE01224FF48041044800F0D0
:100E7C0000FE4FF40041024800F013FE00BF80BD9D
:100E8C000008014080B500AF01224FF4806110488A
:100E9C0000F0EFFD4FF400610D4800F002FE01225E
:100EAC004FF480510A4800F0E4FD01224FF4005148
:100EBC00074800F0DEFD4FF48041054800F0F1FDDD
:100ECC0001224FF40041024800F0D3FD00BF80BD69
:100EDC000008014080B500AF4FF48061104800F06D
:100EEC00E0FD01224FF400610D4800F0C2FD01222B
:100EFC004FF480510A4800F0BCFD4FF400510848F3
:100F0C0000F0CFFD01224FF48041054800F0B1FD07
:100F1C0001224FF40041024800F0ABFD00BF80BD40
:100F2C000008014080B582B000AF00F0A1FA00F0DB
:100F3C0081F800F0BBF800F005F900237B60FFF7A7
:100F4C00CFF9374801F0F2F97B68032B5BD801A28B
:100F5C0052F823F0710F00089D0F0008C90F00080C
:100F6C00F50F0008FFF718FA0020FFF76FF903469A
:100F7C00002B4DD02B4B1B682B4A136001237B603D
:100F8C004FF4FA71002000F055F9FFF7D9F83FE063
:100F9C00FFF7B4FB0020FFF759F90346002B39D0BB
:100FAC00224B1B68204A136002237B604FF4FA71BA
:100FBC00002000F03FF9FFF7C3F82BE0FFF748FBE8
:100FCC000020FFF743F90346002B25D0184B1B6874
:100FDC00154A136003237B604FF4FA71002000F074
:100FEC0029F9FFF7ADF817E0FFF7DCFA0020FFF75F
:100FFC002DF90346002B11D000237B60FFF7A4F9D9
:10100C00FFF79EF80AE000237B60FFF79DF906E0EE
:10101C0000BF99E700BF97E700BF95E700BF93E7D4
:10102C007C0000207800002070000020740000205C
:10103C006C00002080B590B000AF07F11803282297
:10104C000021184601F022FD3B1D00221A605A6057
:10105C009A60DA601A610223BB610123BB62102320
:10106C00FB6200237B6307F11803184600F032FD86
:10107C000346002B01D000F0D8F80F237B6000232F
:10108C00BB600023FB6000233B6100237B613B1DA5
:10109C000021184600F09EFF0346002B01D000F003
:1010AC00C4F800BF4037BD4680BD000080B586B097
:1010BC0000AF07F1080300221A605A609A60DA60E8
:1010CC003B4600221A605A601D4B4FF080421A605A
:1010DC001B4B41F63F725A60194B00229A60184B19
:1010EC000922DA60164B00221A61154B00229A6114
:1010FC00134801F0CBF80346002B01D000F095F813
:10110C004FF48053BB6007F1080319460C4801F0FB
:10111C0049FA0346002B01D000F087F800233B600E
:10112C0000237B603B461946054801F021FC034631
:10113C00002B01D000F079F800BF1837BD4680BDF8
:10114C007C00002080B586B000AF07F108030022B8
:10115C001A605A609A60DA60284B9B69274A43F000
:10116C0004039361254B9B6903F004037B607B684C
:10117C00224B9B69214A43F0080393611F4B9B69E7
:10118C0003F008033B603B6800224FF27F211C48B0
:10119C0000F06FFC00224FF47C411A4800F069FC0F
:1011AC000E23BB600023FB6001233B6107F10803A6
:1011BC001946144800F0CCFA4FF27F23BB60012390
:1011CC00FB6000233B6102237B6107F10803194696
:1011DC000B4800F0BDFA4FF47C43BB600123FB606D
:1011EC0000233B6102237B6107F108031946054884
:1011FC0000F0AEFA00BF1837BD4680BD00100240AB
:10120C00000C01400008014080B582B000AF78604E
:10121C0000F030F87B681B68B3F1804F01D1FEF70A
:10122C009BFF00BF0837BD4680BD80B400AF72B6CF
:10123C0000BFFEE780B483B000AF786039600A4A23
:10124C007B68002142F823103B68084A82FB03129A
:10125C009210DB17D21A06497B6841F8232000BF95
:10126C000C37BD4680BC7047EC0000206766666694
:10127C00C400002080B483B000AF00237B601CE06E
:10128C00124A7B6852F82330002B08DD0F4A7B682A
:10129C0052F823305A1E0D497B6841F823200B4A23
:1012AC007B6852F82330002B04DC094A7B6801214F
:1012BC0042F823107B6801337B607B68092BDFDDF0
:1012CC0000BF00BF0C37BD4680BC7047C400002077
:1012DC00EC00002080B483B000AF7860094A7B68D2
:1012EC0052F82330012B06D1064A7B68002142F8C4
:1012FC002310012300E0002318460C37BD4680BCA8
:10130C00704700BFEC00002080B485B000AF154BD7
:10131C009B69144A43F001039361124B9B6903F0E0
:10132C000103BB60BB680F4BDB690E4A43F0805373
:10133C00D3610C4BDB6903F080537B607B680A4BF9
:10134C005B68FB60FB6823F0E063FB60FB6843F0C9
:10135C008063FB60044AFB68536000BF1437BD46D2
:10136C0080BC7047001002400000014080B584B082
:10137C0000AF78607B681B68B3F1804F13D10C4BC6
:10138C00DB690B4A43F00103D361094BDB6903F0C2
:10139C000103FB60FB68002200211C2000F0A1F976
:1013AC001C2000F0BAF900BF1037BD4680BD00BF4D
:1013BC000010024080B400AFFEE780B400AFFEE73F
:1013CC0080B400AFFEE780B400AFFEE780B400AF9E
:1013DC00FEE780B400AF00BFBD4680BC704780B450
:1013EC0000AF00BFBD4680BC704780B400AF00BFEB
:1013FC00BD4680BC704780B500AF00F07FF800BFE1
:10140C0080BD000080B500AF024800F0DBFF00BFDC
:10141C0080BD00BF7C00002080B400AF00BFBD4683
:10142C0080BC7047FFF7F8FF0B480C490C4A0023AF
:10143C0002E0D458C4500433C4188C42F9D3094A7E
:10144C00094C002301E013600432A242FBD301F0EB
:10145C00F9FAFFF767FD7047000000202C00002010
:10146C00EC2A00082C00002018010020FEE70000E8
:10147C0080B500AF084B1B68074A43F0100313609C
:10148C00032000F023F90F2000F008F8FFF73CFFD1
:10149C000023184680BD00BF0020024080B582B0FA
:1014AC0000AF7860124B1A68124B1B7819464FF438
:1014BC007A73B3FBF1F3B2FBF3F3184600F03BF98C
:1014CC000346002B01D001230EE07B680F2B0AD8BA
:1014DC00002279684FF0FF3000F003F9064A7B6870
:1014EC001360002300E0012318460837BD4680BD79
:1014FC0020000020280000202400002080B400AF31
:10150C00054B1B781A46054B1B681344034A1360A2
:10151C0000BFBD4680BC704728000020140100208D
:10152C0080B400AF024B1B681846BD4680BC7047A8
:10153C001401002080B485B000AF78607B6803F0A4
:10154C000703FB600C4BDB68BB60BA684FF6FF030C
:10155C001340BB60FB681A02BB68134343F0BF63C4
:10156C0043F40033BB60044ABB68D36000BF14373C
:10157C00BD4680BC704700BF00ED00E080B400AFFA
:10158C00044BDB681B0A03F007031846BD4680BCFE
:10159C00704700BF00ED00E080B483B000AF03469D
:1015AC00FB7197F90730002B0BDBFB7903F01F0263
:1015BC00064997F907305B09012000FA02F241F85D
:1015CC00232000BF0C37BD4680BC704700E100E013
:1015DC0080B483B000AF03463960FB7197F90730D4
:1015EC00002B0ADB3B68DAB20C4997F90730120181
:1015FC00D2B20B4483F800230AE03B68DAB2084904
:10160C00FB7903F00F03043B1201D2B20B441A76A0
:10161C0000BF0C37BD4680BC704700BF00E100E046
:10162C0000ED00E080B489B000AFF860B9607A607A
:10163C00FB6803F00703FB61FB69C3F10703042B91
:10164C0028BF0423BB61FB690433062B02D9FB6959
:10165C00033B00E000237B614FF0FF32BB6902FAD1
:10166C0003F3DA43BB681A407B699A404FF0FF31B1
:10167C007B6901FA03F3D9437B680B40134318468B
:10168C002437BD4680BC704780B582B000AF78600F
:10169C007B68013BB3F1807F01D301230FE00A4A41
:1016AC007B68013B53600F214FF0FF30FFF790FF39
:1016BC00054B00229A60044B07221A60002318463F
:1016CC000837BD4680BD00BF10E000E080B582B099
:1016DC0000AF78607868FFF72DFF00BF0837BD4674
:1016EC0080BD80B586B000AF0346B9607A60FB73ED
:1016FC0000237B61FFF742FF78617A68B9687869EB
:10170C00FFF790FF024697F90F3011461846FFF786
:10171C005FFF00BF1837BD4680BD80B582B000AFFB
:10172C000346FB7197F907301846FFF735FF00BFEA
:10173C000837BD4680BD80B582B000AF7860786850
:10174C00FFF7A2FF034618460837BD4680BD0000D0
:10175C0080B48BB000AF7860396000237B620023CB
:10176C003B6248E101227B6A02FA03F3FB613B68AE
:10177C001B68FA691340BB61BA69FB699A4240F075
:10178C0037813B685B68A34A93425ED0A14A93427F
:10179C0075D8A14A934258D09F4A93426FD89F4A1A
:1017AC00934252D09D4A934269D89D4A93424CD061
:1017BC009B4A934263D89B4A934246D0994A9342A0
:1017CC005DD8122B2AD8122B59D801A252F823F02B
:1017DC00571800083118000843180008851800082D
:1017EC008B1800088B1800088B1800088B18000841
:1017FC008B1800088B1800088B1800088B18000831
:10180C008B1800088B1800088B1800088B18000820
:10181C008B180008391800084D180008824A9342AA
:10182C0013D02CE03B68DB683B6229E03B68DB684B
:10183C0004333B6224E03B68DB6808333B621FE007
:10184C003B68DB680C333B621AE03B689B68002BFF
:10185C0002D104233B6213E03B689B68012B05D14A
:10186C0008233B627B68FA691A6109E008233B6232
:10187C007B68FA695A6103E000233B6200E000BF19
:10188C00BB69FF2B01D87B6801E07B6804337B616B
:10189C00BB69FF2B02D87B6A9B0002E07B6A083B8A
:1018AC009B003B617B691A680F213B6901FA03F3CA
:1018BC00DB431A40396A3B6901FA03F31A437B692B
:1018CC001A603B685B6803F08053002B00F090803B
:1018DC00564B9B69554A43F001039361534B9B69EB
:1018EC0003F00103BB60BB68514A7B6A9B0802335F
:1018FC0052F82330FB607B6A03F003039B000F223A
:10190C0002FA03F3DB43FA681340FB607B68494A35
:10191C0093420DD07B68484A934207D07B68474A74
:10192C00934201D1022304E0032302E0012300E0EF
:10193C0000237A6A02F0030292009340FA68134380
:10194C00FB603B497B6A9B080233FA6841F8232011
:10195C003B685B6803F48013002B06D0384B9A6805
:10196C003749BB6913438B6006E0354B9A68BB69FA
:10197C00DB43334913408B603B685B6803F4001313
:10198C00002B06D02E4BDA682D49BB691343CB6074
:10199C0006E02B4BDA68BB69DB4329491340CB606B
:1019AC003B685B6803F40033002B06D0244B5A6869
:1019BC002349BB6913434B6006E0214B5A68BB6952
:1019CC00DB431F4913404B603B685B6803F4803377
:1019DC00002B06D01A4B1A681949BB6913430B60CC
:1019EC0006E0174B1A68BB69DB43154913400B60C3
:1019FC007B6A01337B623B681A687B6A22FA03F3C9
:101A0C00002B7FF4AFAE00BF00BF2C37BD4680BCAF
:101A1C00704700BF0000321000003110000022108F
:101A2C0000002110000012100000111000100240E4
:101A3C000000014000080140000C01400010014072
:101A4C000004014080B485B000AF78600B467B8009
:101A5C007B689A687B881340002B02D00123FB73B0
:101A6C0001E00023FB73FB7B18461437BD4680BC9A
:101A7C00704780B483B000AF78600B467B80134610
:101A8C007B707B78002B03D07A887B681A6103E02B
:101A9C007B881A047B681A6100BF0C37BD4680BC7A
:101AAC00704780B485B000AF78600B467B807B6854
:101ABC00DB68FB607A88FB6813401A04FB68D94327
:101ACC007B880B401A437B681A6100BF1437BD46F4
:101ADC0080BC704780B586B000AF78607B68002B07
:101AEC0001D101236CE27B681B6803F00103002B1E
:101AFC0000F08780924B5B6803F00C03042B0CD036
:101B0C008F4B5B6803F00C03082B12D18C4B5B687A
:101B1C0003F48033B3F5803F0BD1894B1B6803F47E
:101B2C000033002B6CD07B685B68002B68D10123E1
:101B3C0046E27B685B68B3F5803F06D1804B1B683F
:101B4C007F4A43F4803313602EE07B685B68002B84
:101B5C000CD17B4B1B687A4A23F480331360784B8F
:101B6C001B68774A23F4802313601DE07B685B6855
:101B7C00B3F5A02F0CD1724B1B68714A43F4802330
:101B8C0013606F4B1B686E4A43F4803313600BE099
:101B9C006B4B1B686A4A23F480331360684B1B68D9
:101BAC00674A23F4802313607B685B68002B13D097
:101BBC00FFF7B6FC386108E0FFF7B2FC02463B6960
:101BCC00D31A642B01D90323FAE15D4B1B6803F490
:101BDC000033002BF0D014E0FFF7A2FC386108E0D2
:101BEC00FFF79EFC02463B69D31A642B01D90323F1
:101BFC00E6E1534B1B6803F40033002BF0D100E0FB
:101C0C0000BF7B681B6803F00203002B63D04C4BB6
:101C1C005B6803F00C03002B0BD0494B5B6803F0A3
:101C2C000C03082B1CD1464B5B6803F48033002B50
:101C3C0016D1434B1B6803F00203002B05D07B68C5
:101C4C001B69012B01D00123BAE13D4B1B6823F02A
:101C5C00F8027B685B69DB00394913430B603AE09F
:101C6C007B681B69002B20D0364B01221A60FFF7D2
:101C7C0057FC386108E0FFF753FC02463B69D31A66
:101C8C00022B01D903239BE12D4B1B6803F00203AC
:101C9C00002BF0D02A4B1B6823F0F8027B685B69A1
:101CAC00DB00274913430B6015E0264B00221A601A
:101CBC00FFF736FC386108E0FFF732FC02463B695F
:101CCC00D31A022B01D903237AE11D4B1B6803F0B5
:101CDC000203002BF0D17B681B6803F00803002B78
:101CEC003AD07B689B69002B19D0174B01221A60E4
:101CFC00FFF716FC386108E0FFF712FC02463B695F
:101D0C00D31A022B01D903235AE10D4B5B6A03F062
:101D1C000203002BF0D0012000F09AFA1CE00A4BD1
:101D2C0000221A60FFF7FCFB38610FE0FFF7F8FBAD
:101D3C0002463B69D31A022B08D9032340E100BFAA
:101D4C000010024000004242800442429E4B5B6AFB
:101D5C0003F00203002BE9D17B681B6803F004033A
:101D6C00002B00F0A6800023FB75974BDB6903F07A
:101D7C008053002B0DD1944BDB69934A43F0805375
:101D8C00D361914BDB6903F08053BB60BB680123CB
:101D9C00FB758E4B1B6803F48073002B18D18B4B97
:101DAC001B688A4A43F480731360FFF7B9FB3861F0
:101DBC0008E0FFF7B5FB02463B69D31A642B01D947
:101DCC000323FDE0814B1B6803F48073002BF0D0E0
:101DDC007B68DB68012B06D17B4B1B6A7A4A43F08C
:101DEC00010313622DE07B68DB68002B0CD1764B72
:101DFC001B6A754A23F001031362734B1B6A724A08
:101E0C0023F0040313621CE07B68DB68052B0CD108
:101E1C006D4B1B6A6C4A43F0040313626A4B1B6ADA
:101E2C00694A43F0010313620BE0674B1B6A664A75
:101E3C0023F001031362644B1B6A634A23F004030F
:101E4C0013627B68DB68002B15D0FFF769FB3861E8
:101E5C000AE0FFF765FB02463B69D31A41F2883270
:101E6C00934201D90323ABE0574B1B6A03F00203E7
:101E7C00002BEED014E0FFF753FB38610AE0FFF7BC
:101E8C004FFB02463B69D31A41F28832934201D987
:101E9C00032395E04C4B1B6A03F00203002BEED19D
:101EAC00FB7D012B05D1484BDB69474A23F080535E
:101EBC00D3617B68DB69002B00F08180424B5B684F
:101ECC0003F00C03082B61D07B68DB69022B46D135
:101EDC003F4B00221A60FFF723FB386108E0FFF745
:101EEC001FFB02463B69D31A022B01D9032367E07F
:101EFC00354B1B6803F00073002BF0D17B681B6A19
:101F0C00B3F5803F08D1304B5B6823F400327B681B
:101F1C009B682D4913434B602B4B5B6823F4741265
:101F2C007B68196A7B685B6A0B43274913434B60D8
:101F3C00274B01221A60FFF7F3FA386108E0FFF72C
:101F4C00EFFA02463B69D31A022B01D9032337E07F
:101F5C001D4B1B6803F00073002BF0D02FE01C4BC3
:101F6C0000221A60FFF7DCFA386108E0FFF7D8FAB4
:101F7C0002463B69D31A022B01D9032320E0124BF2
:101F8C001B6803F00073002BF0D118E07B68DB6951
:101F9C00012B01D1012313E00B4B5B68FB60FB6849
:101FAC0003F480327B681B6A9A4206D1FB6803F407
:101FBC0070127B685B6A9A4201D0012300E0002317
:101FCC0018461837BD4680BD001002400070004016
:101FDC006000424280B584B000AF786039607B68A5
:101FEC00002B01D10123D0E06A4B1B6803F00703DF
:101FFC003A689A4210D9674B1B6823F0070265496F
:10200C003B6813430B60634B1B6803F007033A6890
:10201C009A4201D00123B8E07B681B6803F00203ED
:10202C00002B20D07B681B6803F00403002B05D029
:10203C00594B5B68584A43F4E06353607B681B68F8
:10204C0003F00803002B05D0534B5B68524A43F452
:10205C0060535360504B5B6823F0F0027B689B68C5
:10206C004D4913434B607B681B6803F00103002B45
:10207C0040D07B685B68012B07D1474B1B6803F48E
:10208C000033002B15D101237FE07B685B68022BAA
:10209C0007D1414B1B6803F00073002B09D10123BE
:1020AC0073E03D4B1B6803F00203002B01D10123AD
:1020BC006BE0394B5B6823F003027B685B68364945
:1020CC0013434B60FFF72CFAF8600AE0FFF728FA8D
:1020DC000246FB68D31A41F28832934201D903239A
:1020EC0053E02D4B5B6803F00C027B685B689B0034
:1020FC009A42EBD1274B1B6803F007033A689A42CC
:10210C0010D2244B1B6823F0070222493B6813436F
:10211C000B60204B1B6803F007033A689A4201D00E
:10212C00012332E07B681B6803F00403002B08D00A
:10213C00194B5B6823F4E0627B68DB681649134338
:10214C004B607B681B6803F00803002B09D0124B13
:10215C005B6823F460527B681B69DB000E491343F8
:10216C004B6000F021F802460B4B5B681B0903F037
:10217C000F030A49CB5C22FA03F3094A1360094B9B
:10218C001B681846FFF78AF9002318461037BD461E
:10219C0080BD00BF0020024000100240C02A000891
:1021AC00200000202400002080B487B000AF002362
:1021BC00FB600023BB6000237B6100237B6000235A
:1021CC003B611E4B5B68FB60FB6803F00C03042B4C
:1021DC0002D0082B03D027E0194B3B6127E0FB68AA
:1021EC009B0C03F00F03174AD35C7B60FB6803F472
:1021FC008033002B10D0114B5B685B0C03F0010398
:10220C00114AD35CBB607B680D4A02FB03F2BB68CE
:10221C00B2FBF3F37B6104E07B680C4A02FB03F333
:10222C007B617B693B6102E0054B3B6100BF3B6915
:10223C0018461C37BD4680BC704700BF00100240DA
:10224C0000127A00D02A0008E02A000800093D009C
:10225C0080B485B000AF78600A4B1B680A4AA2FBB9
:10226C0003235B0A7A6802FB03F3FB6000BFFB6885
:10227C005A1EFA60002BF9D100BF00BF1437BD46BF
:10228C0080BC704720000020D34D621080B582B016
:10229C0000AF78607B68002B01D1012341E07B68A3
:1022AC0093F83D30DBB2002B06D17B68002283F81B
:1022BC003C207868FFF75AF87B68022283F83D20AF
:1022CC007B681A687B6804331946104600F056FA8E
:1022DC007B68012283F846207B68012283F83E202C
:1022EC007B68012283F83F207B68012283F8402021
:1022FC007B68012283F841207B68012283F842200D
:10230C007B68012283F843207B68012283F84420F8
:10231C007B68012283F845207B68012283F83D20ED
:10232C00002318460837BD4680BD000080B485B038
:10233C0000AF78607B6893F83D30DBB2012B01D0A5
:10234C00012335E07B68022283F83D207B681B6803
:10235C00DA687B681B6842F00102DA607B681B68F4
:10236C00164A934209D07B681B68B3F1804F04D0A6
:10237C007B681B68124A934211D17B681B689B686F
:10238C0003F00703FB60FB68062B10D07B681B680F
:10239C001A687B681B6842F001021A6007E07B68D0
:1023AC001B681A687B681B6842F001021A600023E4
:1023BC0018461437BD4680BC704700BF002C014046
:1023CC000004004080B584B000AF78607B681B6867
:1023DC00DB68FB607B681B681B69BB60BB6803F038
:1023EC000203002B20D0FB6803F00203002B1BD050
:1023FC007B681B686FF002021A617B6801221A77F6
:10240C007B681B689B6903F00303002B03D078687F
:10241C0000F098F905E0786800F08BF9786800F026
:10242C009AF97B6800221A77BB6803F00403002B2F
:10243C0020D0FB6803F00403002B1BD07B681B68C7
:10244C006FF004021A617B6802221A777B681B68A2
:10245C009B6903F44073002B03D0786800F072F989
:10246C0005E0786800F065F9786800F074F97B682D
:10247C0000221A77BB6803F00803002B20D0FB68FE
:10248C0003F00803002B1BD07B681B686FF008025D
:10249C001A617B6804221A777B681B68DB6903F07E
:1024AC000303002B03D0786800F04CF905E0786842
:1024BC0000F03FF9786800F04EF97B6800221A773B
:1024CC00BB6803F01003002B20D0FB6803F0100353
:1024DC00002B1BD07B681B686FF010021A617B68A5
:1024EC0008221A777B681B68DB6903F44073002BA6
:1024FC0003D0786800F026F905E0786800F019F947
:10250C00786800F028F97B6800221A77BB6803F022
:10251C000103002B0CD0FB6803F00103002B07D048
:10252C007B681B686FF001021A617868FEF76CFE1D
:10253C00BB6803F08003002B0CD0FB6803F0800316
:10254C00002B07D07B681B686FF080021A617868DB
:10255C0000F06FFABB6803F04003002B0CD0FB6853
:10256C0003F04003002B07D07B681B686FF0400220
:10257C001A61786800F0F8F8BB6803F02003002BB0
:10258C000CD0FB6803F02003002B07D07B681B6882
:10259C006FF020021A61786800F042FA00BF103721
:1025AC00BD4680BD80B584B000AF78603960002333
:1025BC00FB737B6893F83C30012B01D10223B4E010
:1025CC007B68012283F83C207B68022283F83D2043
:1025DC007B681B689B68BB60BB6823F07703BB60A0
:1025EC00BB6823F47F43BB607B681B68BA689A6046
:1025FC003B681B68B3F5005F3ED0B3F5005F00F29B
:10260C008780B3F5805F00F08680B3F5805F7FD85C
:10261C00702B1AD0702B7BD8602B50D0602B77D8B6
:10262C00502B3CD0502B73D8402B58D0402B6FD80C
:10263C00302B64D0302B6BD8202B60D0202B67D85C
:10264C00002B5CD0102B5AD062E07B6818683B687A
:10265C0099683B685A683B68DB6800F06AF97B68EC
:10266C001B689B68BB60BB6843F07703BB607B68EF
:10267C001B68BA689A604FE07B6818683B68996879
:10268C003B685A683B68DB6800F053F97B681B6851
:10269C009A687B681B6842F480429A603CE07B68D5
:1026AC0018683B6859683B68DB681A4600F0CAF842
:1026BC007B681B685021184600F021F92CE07B68E0
:1026CC0018683B6859683B68DB681A4600F0E8F804
:1026DC007B681B686021184600F011F91CE07B68D0
:1026EC0018683B6859683B68DB681A4600F0AAF822
:1026FC007B681B684021184600F001F90CE07B68F0
:10270C001A683B681B681946104600F0F8F803E09D
:10271C000123FB7300E000BF7B68012283F83D209E
:10272C007B68002283F83C20FB7B18461037BD46A3
:10273C0080BD80B483B000AF786000BF0C37BD465D
:10274C0080BC704780B483B000AF786000BF0C379A
:10275C00BD4680BC704780B483B000AF786000BFCA
:10276C000C37BD4680BC704780B483B000AF786036
:10277C0000BF0C37BD4680BC7047000080B485B0EC
:10278C0000AF786039607B681B68FB607B682B4A04
:10279C00934207D07B68B3F1804F03D07B68284A03
:1027AC00934208D1FB6823F07003FB603B685B68C5
:1027BC00FA681343FB607B68204A934207D07B681E
:1027CC00B3F1804F03D07B681D4A934208D1FB685C
:1027DC0023F44073FB603B68DB68FA681343FB60CF
:1027EC00FB6823F080023B685B691343FB607B68EA
:1027FC00FA681A603B689A687B68DA623B681A6808
:10280C007B689A627B680D4A934203D13B681A69D4
:10281C007B681A637B6801225A617B681B6903F031
:10282C000103002B05D07B681B6923F001027B6838
:10283C001A6100BF1437BD4680BC7047002C0140A4
:10284C000004004080B487B000AFF860B9607A60D3
:10285C00FB681B6A7B61FB681B6A23F00102FB6847
:10286C001A62FB689B693B613B6923F0F0033B6197
:10287C007B681B013A6913433B617B6923F00A03B4
:10288C007B617A69BB6813437B61FB683A699A6127
:10289C00FB687A691A6200BF1C37BD4680BC704762
:1028AC0080B487B000AFF860B9607A60FB681B6ACF
:1028BC007B61FB681B6A23F01002FB681A62FB68E1
:1028CC009B693B613B6923F470433B617B681B0351
:1028DC003A6913433B617B6923F0A0037B61BB68BE
:1028EC001B017A6913437B61FB683A699A61FB6847
:1028FC007A691A6200BF1C37BD4680BC704780B431
:10290C0085B000AF786039607B689B68FB60FB68C2
:10291C0023F07003FB603A68FB68134343F0070332
:10292C00FB607B68FA689A6000BF1437BD4680BCB8
:10293C00704780B487B000AFF860B9607A603B60D4
:10294C00FB689B687B617B6923F47F437B613B68FD
:10295C001A027B681A43BB6813437A6913437B6181
:10296C00FB687A699A6000BF1C37BD4680BC704713
:10297C0080B485B000AF786039607B6893F83C30E8
:10298C00012B01D1022341E07B68012283F83C201A
:10299C007B68022283F83D207B681B685B68FB60C8
:1029AC007B681B689B68BB60FB6823F07003FB6053
:1029BC003B681B68FA681343FB607B681B68FA680A
:1029CC005A607B681B68144A934209D07B681B6869
:1029DC00B3F1804F04D07B681B68104A93420CD132
:1029EC00BB6823F08003BB603B685B68BA68134329
:1029FC00BB607B681B68BA689A607B68012283F8AD
:102A0C003D207B68002283F83C20002318461437B5
:102A1C00BD4680BC704700BF002C01400004004044
:102A2C0080B483B000AF786000BF0C37BD4680BC6B
:102A3C00704780B483B000AF786000BF0C37BD46E0
:102A4C0080BC704770B500260C4D0D4C641BA41057
:102A5C00A64209D100F022F800260A4D0A4C641B4C
:102A6C00A410A64205D170BD55F8043B9847013619
:102A7C00EEE755F8043B98470136F2E7E42A0008E4
:102A8C00E42A0008E42A0008E82A00080346024465
:102A9C00934200D1704703F8011BF9E7F8B500BF6A
:102AAC00F8BC08BC9E467047F8B500BFF8BC08BC23
:042ABC009E4670477B
:102AC00000000000000000000102030406070809DE
:102AD00002030405060708090A0B0C0D0E0F10105F
:042AE00001020000EF
:042AE40031010008B4
:042AE8000D010008D4
:102AEC00010101000100000001000000000801408C
:102AFC00000801400008014002000400080000002A
:0C2B0C0000127A00100000000100000020
:0400000508001431AA
:00000001FF
