:020000040800F2
:1000000000280020711300080113000807130008DE
:100010000D13000813130008191300080000000056
:100020000000000000000000000000001F13000896
:100030002B130008000000003713000843130008CA
:10004000B9130008B9130008B9130008B913000860
:10005000B9130008B9130008B9130008B913000850
:10006000B9130008B9130008B9130008B913000840
:10007000B9130008B9130008B9130008B913000830
:10008000B9130008B9130008B9130008B913000820
:10009000B9130008B9130008B9130008B913000810
:1000A000B9130008B9130008B9130008B913000800
:1000B00051130008B913000800000000B91300082C
:1000C000B91300080000000000000000B913000888
:1000D00000000000B9130008B91300080000000078
:1000E000B9130008B9130008B91300080000000094
:1000F0000000000000000000000000000000000000
:0C01000000000000000000005FF808F1A3
:10010C0010B5054C237833B9044B13B10448AFF345
:10011C0000800123237010BD20000020000000008F
:10012C00302A000808B5034B1BB103490348AFF351
:10013C00008008BD0000000024000020302A0008C8
:10014C0080B500AF4FF40071024801F06EFC00BFA7
:10015C0080BD00BF000C014080B582B000AF002311
:10016C007B6041E0244A7B6852F8232023497B685A
:10017C0031F813301946104601F028FC0346194695
:10018C001F4A7B6813440A461A701D4A7B68134445
:10019C001B78002B1BD11B4A7B6832F81330632B66
:1001AC000FD8184A7B6832F81330013399B2154ACC
:1001BC007B6822F813104FF4FA71032000F0DAFF79
:1001CC000FE0114A7B68134401221A7009E00D4AB2
:1001DC007B68002122F813100B4A7B681344002221
:1001EC001A707B6801337B607B68022BBAD900BF25
:1001FC0000BF0837BD4680BD000000200C00002069
:10020C0060000020580000206400002080B483B0FF
:10021C0000AF78607B68022B01D900230EE00A4AFC
:10022C007B6813441B78002B07D1084A7B6832F893
:10023C001330312B01D8012300E0002318460C3772
:10024C00BD4680BC704700BF6000002058000020F5
:10025C0080B582B000AF78607B68022B01D9002397
:10026C0013E0032000F0D6FF0346002B0CD0094A04
:10027C007B6813441B78012B06D14FF4FA710320D1
:10028C0000F078FF012300E0002318460837BD4634
:10029C0080BD00BF6400002080B500AF114B0C2264
:1002AC001A60114B05221A60104B17221A60104B62
:1002BC0000221A600D4B1B680E4A13600E4B012274
:1002CC001A60084B1B680D4A13604FF47A710020BA
:1002DC0000F050FF4FF47A71012000F04BFF00BF8B
:1002EC0080BD00BF40000020480000204C000020D2
:1002FC007800002074000020700000206C000020AA
:10030C0080B500AF0C4B00221A600C4B1B680C4ADA
:10031C0013600C4B01221A600B4B1B680B4A1360C9
:10032C004FF47A71002000F025FF4FF47A71012010
:10033C0000F020FF00BF80BD780000204C000020A2
:10034C007400002070000020400000206C00002091
:10035C0080B500AF7A4B1B68022B23D0022B5DDCDF
:10036C00002B3DD0012B59D100F06EFC002000F089
:10037C0051FF0346002B09D04FF47A71002000F096
:10038C00F9FE704B1B68013B6E4A13606D4B1B688A
:10039C00002B50DC6C4B1B686A4A1360684B0222C2
:1003AC001A6048E000F068FC002000F033FF0346C0
:1003BC00002B09D04FF47A71002000F0DBFE614B6A
:1003CC001B68013B5F4A13605E4B1B68002B34DCDF
:1003DC005E4B1B685B4A1360594B00221A602CE081
:1003EC0000F062FC002000F015FF0346002B09D042
:1003FC004FF47A71002000F0BDFE524B1B68013B9C
:10040C00504A13604F4B1B68002B18DC504B1B6879
:10041C004C4A13604A4B01221A6010E0484B0022F0
:10042C001A604A4B1B68474A13604FF47A710020DC
:10043C0000F0A0FE04E000BF02E000BF00E000BF3F
:10044C00444B1B68022B23D0022B5DDC002B3DD0D0
:10045C00012B59D100F040FC012000F0DBFE0346DB
:10046C00002B09D04FF47A71012000F083FE3A4B37
:10047C001B68013B384A1360374B1B68002B50DC60
:10048C00314B1B68344A1360324B02221A6048E02D
:10049C0000F03AFC012000F0BDFE0346002B09D011
:1004AC004FF47A71012000F065FE2B4B1B68013B69
:1004BC00294A1360284B1B68002B34DC234B1B6828
:1004CC00254A1360234B00221A602CE000F034FC08
:1004DC00012000F09FFE0346002B09D04FF47A71E7
:1004EC00012000F047FE1C4B1B68013B1A4A1360AD
:1004FC00194B1B68002B18DC154B1B68164A136034
:10050C00144B01221A6010E0124B00221A600F4BA0
:10051C001B68114A13604FF47A71012000F02AFE17
:10052C0004E000BF02E000BF00E000BF054B1B6809
:10053C00094A12681146184600F060FA00BF80BDE7
:10054C007800002074000020480000204C0000209F
:10055C0040000020700000206C00002080B500AF2F
:10056C00002000F057FE0346002B06D000F0FCFBE9
:10057C004FF4FA71002000F0FDFD164B1B68194674
:10058C00042000F03BFA0120FFF762FE0346002B2B
:10059C0009D0104B1B6801330E4A13604FF4FA71EB
:1005AC00032000F0E7FD0120FFF730FE0346002B8F
:1005BC0004D0084B1B680133064A13600220FFF776
:1005CC0025FE0346002B03D0024B1B68024A136026
:1005DC0000BF80BD440000204000002080B500AF6B
:1005EC00002000F017FE0346002B06D000F0E4FBC1
:1005FC004FF4FA71002000F0BDFD164B1B68194634
:10060C00032000F0FBF90120FFF722FE0346002B2C
:10061C0009D0104B1B6801330E4A13604FF4FA716A
:10062C00032000F0A7FD0120FFF7F0FD0346002B8F
:10063C0004D0084B1B680133064A13600220FFF7F5
:10064C00E5FD0346002B03D0024B1B68024A1360E6
:10065C0000BF80BD440000204800002080B500AFE2
:10066C00002000F0D7FD0346002B06D000F0CCFB99
:10067C004FF4FA71002000F07DFD164B1B681946F3
:10068C00022000F0BBF90120FFF7E2FD0346002B2E
:10069C0009D0104B1B6801330E4A13604FF4FA71EA
:1006AC00032000F067FD0120FFF7B0FD0346002B8F
:1006BC0004D0084B1B680133064A13600220FFF775
:1006CC00A5FD0346002B03D0024B1B68024A1360A6
:1006DC0000BF80BD440000204C00002080B582B0DB
:1006EC0000AF78607B68092B00F2808101A252F880
:1006FC0023F000BF2907000871070008B90700089C
:10070C00010800084908000891080008D9080008E9
:10071C002109000869090008B1090008002201211B
:10072C00B54801F06AF900220221B34801F065F9DD
:10073C0000220421B04801F060F900220821AE48E3
:10074C0001F05BF900221021AB4801F056F90022B0
:10075C002021A94801F051F901224021A64801F0BD
:10076C004CF944E101220121A34801F046F9002291
:10077C000221A14801F041F9002204219E4801F018
:10078C003CF9012208219C4801F037F90122102183
:10079C00994801F032F901222021974801F02DF9F6
:1007AC0001224021944801F028F920E10022012186
:1007BC00914801F022F9002202218F4801F01DF925
:1007CC00012204218C4801F018F9002208218A48E2
:1007DC0001F013F900221021874801F00EF90122D3
:1007EC002021854801F009F900224021824801F0BE
:1007FC0004F9FCE0002201217F4801F0FEF8002200
:10080C0002217D4801F0F9F8002204217A4801F018
:10081C00F4F800220821784801F0EFF801221021A9
:10082C00754801F0EAF801222021734801F0E5F83F
:10083C0000224021704801F0E0F8D8E001220121AB
:10084C006D4801F0DAF8002202216B4801F0D5F86E
:10085C0000220421684801F0D0F8012208216648E2
:10086C0001F0CBF801221021634801F0C6F80022F8
:10087C002021614801F0C1F8002240215E4801F0BE
:10088C00BCF8B4E0002201215B4801F0B6F801226B
:10089C000221594801F0B1F800220421564801F018
:1008AC00ACF800220821544801F0A7F801221021CD
:1008BC00514801F0A2F8002220214F4801F09DF888
:1008CC00002240214C4801F098F890E000220121D0
:1008DC00494801F092F801220221474801F08DF8B5
:1008EC0000220421444801F088F8002208214248E3
:1008FC0001F083F8002210213F4801F07EF800221D
:10090C0020213D4801F079F8002240213A4801F0BD
:10091C0074F86CE000220121374801F06EF80022D7
:10092C000221354801F069F800220421324801F017
:10093C0064F801220821304801F05FF801221021EF
:10094C002D4801F05AF8012220212B4801F055F8CE
:10095C0001224021284801F050F848E000220121F2
:10096C00254801F04AF800220221234801F045F8FD
:10097C0000220421204801F040F8002208211E48E2
:10098C0001F03BF8002210211B4801F036F8002240
:10099C002021194801F031F800224021164801F0BD
:1009AC002CF824E000220121134801F026F8002243
:1009BC000221114801F021F8002204210E4801F017
:1009CC001CF8002208210C4801F017F80122102114
:1009DC00094801F012F800222021074801F00DF817
:1009EC0000224021044801F008F800E000BF00BFDD
:1009FC000837BD4680BD00BF000C014080B582B0F9
:100A0C0000AF786039608D4B1B68032B00F2D880E7
:100A1C0001A252F823F000BF350A0008970A00081B
:100A2C00030B0008630B00087B68854A82FB0312EA
:100A3C009210DB17D31A1846FFF750FE00224FF422
:100A4C008051804800F0D9FF01224FF400517D48BD
:100A5C0000F0D3FF01224FF480417A4800F0CDFF23
:100A6C0001224FF40041774800F0C7FF022000F04C
:100A7C00D1FB0346002B00F0D380704B01221A608F
:100A8C007D21022000F076FBCAE07A686C4B83FB78
:100A9C0002139910D317C91A0B469B000B445B0029
:100AAC00D11A0846FFF71AFE01224FF4805165480F
:100ABC0000F0A3FF00224FF40051624800F09DFFAC
:100ACC0001224FF480415F4800F097FF01224FF460
:100ADC0000415C4800F091FF022000F09BFB0346B4
:100AEC00002B00F09F80554B02221A607D210220C2
:100AFC0000F040FB96E03B68514A82FB03129210D7
:100B0C00DB17D31A1846FFF7E9FD01224FF4805189
:100B1C004C4800F072FF01224FF40051494800F09C
:100B2C006CFF00224FF48041464800F066FF012222
:100B3C004FF40041434800F060FF022000F06AFBD4
:100B4C000346002B70D03D4B03221A607D210220FE
:100B5C0000F010FB68E03A68394B83FB02139910E4
:100B6C00D317C91A0B469B000B445B00D11A0846DD
:100B7C00FFF7B4FD01224FF48051324800F03DFFE5
:100B8C0001224FF400512F4800F037FF01224FF49F
:100B9C0080412C4800F031FF00224FF400412948DD
:100BAC0000F02BFF022000F035FB0346002B3DD05C
:100BBC00224B00221A607D21022000F0DBFA35E086
:100BCC007B681F4A82FB03129210DB17D31A18465C
:100BDC00FFF784FD01224FF480511A4800F00DFFFD
:100BEC0001224FF40051174800F007FF01224FF487
:100BFC008041144800F001FF01224FF400411148DC
:100C0C0000F0FBFE022000F005FB0346002B0FD08A
:100C1C000A4B00221A607D21022000F0ABFA07E09B
:100C2C0000BF06E000BF04E000BF02E000BF00E030
:100C3C0000BF00BF0837BD4680BD00BF3C00002090
:100C4C0067666666000C014080B500AF01224FF468
:100C5C008061084800F0D1FE01224FF40061054884
:100C6C0000F0CBFE00224FF48051024800F0C5FE8C
:100C7C0000BF80BD0008014080B500AF01224FF4D9
:100C8C008061084800F0B9FE00224FF4006105486D
:100C9C0000F0B3FE01224FF48051024800F0ADFE8B
:100CAC0000BF80BD0008014080B500AF00224FF4AA
:100CBC008061084800F0A1FE01224FF40061054854
:100CCC0000F09BFE01224FF48051024800F095FE8B
:100CDC0000BF80BD0008014080B500AF01224FF479
:100CEC000051084800F089FE01224FF4804105486C
:100CFC0000F083FE00224FF40041024800F07DFE1C
:100D0C0000BF80BD0008014080B500AF01224FF448
:100D1C000051084800F071FE00224FF48041054854
:100D2C0000F06BFE01224FF40041024800F065FE1A
:100D3C0000BF80BD0008014080B500AF00224FF419
:100D4C000051084800F059FE01224FF4804105483B
:100D5C0000F053FE01224FF40041024800F04DFE1A
:100D6C0000BF80BD0008014080B500AF01224FF4E8
:100D7C008061104800F041FE01224FF400610D48E3
:100D8C0000F03BFE4FF480510A4800F04EFE012269
:100D9C004FF40051074800F030FE01224FF480411F
:100DAC00044800F02AFE4FF40041024800F03DFEDA
:100DBC0000BF80BD0008014080B500AF01224FF498
:100DCC008061104800F019FE4FF400610D4800F0EE
:100DDC002CFE01224FF480510A4800F00EFE012235
:100DEC004FF40051074800F008FE4FF480410548CD
:100DFC0000F01BFE01224FF40041024800F0FDFD03
:100E0C0000BF80BD0008014080B500AF4FF4806189
:100E1C00104800F00AFE01224FF400610D4800F06A
:100E2C00ECFD01224FF480510A4800F0E6FD4FF42E
:100E3C000051084800F0F9FD01224FF480410548AB
:100E4C0000F0DBFD01224FF40041024800F0D5FD1B
:100E5C0000BF80BD0008014080B582B000AF00F03B
:100E6C00A7FA00F087F800F0C1F800F00BF90023A6
:100E7C007B60FA21022000F07DF9FFF70DFA38486B
:100E8C0001F018FA0020FFF7C1F90346012B01D13C
:100E9C00FFF756F97B68032B53D801A252F823F0C5
:100EAC00BD0E0008E50E00080D0F0008350F0008F8
:100EBC00FFF74EFA0020FFF7A9F90346002B43D0A9
:100ECC00284B1B68284A136001237B604FF4FA718E
:100EDC00002000F04FF937E0FFF7C0FB0020FFF7D0
:100EEC0095F90346002B31D0204B1B681E4A13602A
:100EFC0002237B604FF4FA71002000F03BF925E0EF
:100F0C00FFF76CFB0020FFF781F90346002B1FD085
:100F1C00174B1B68144A136003237B604FF4FA7160
:100F2C00002000F027F913E0FFF718FB0020FFF773
:100F3C006DF90346002B0DD000237B60FFF7E0F921
:100F4C0008E000237B6006E000BF04E000BF02E085
:100F5C0000BF00E000BFC82000F08CFA92E700BF91
:100F6C007C0000204C0000204400002048000020A1
:100F7C004000002080B590B000AF07F11803282284
:100F8C000021184601F046FD3B1D00221A605A60F4
:100F9C009A60DA601A610223BB610123BB621023E1
:100FAC00FB6200237B6307F11803184600F056FD23
:100FBC000346002B01D000F0D8F80F237B600023F0
:100FCC00BB600023FB6000233B6100237B613B1D66
:100FDC000021184600F0C2FF0346002B01D000F0A0
:100FEC00C4F800BF4037BD4680BD000080B586B058
:100FFC0000AF07F1080300221A605A609A60DA60A9
:10100C003B4600221A605A601D4B4FF080421A601A
:10101C001B4B41F63F725A60194B00229A60184BD9
:10102C000922DA60164B00221A61154B00229A61D4
:10103C00134801F0EFF80346002B01D000F095F8AF
:10104C004FF48053BB6007F1080319460C4801F0BC
:10105C006DFA0346002B01D000F087F800233B60AB
:10106C0000237B603B461946054801F045FC0346CE
:10107C00002B01D000F079F800BF1837BD4680BDB9
:10108C007C00002080B586B000AF07F10803002279
:10109C001A605A609A60DA60284B9B69274A43F0C1
:1010AC0004039361254B9B6903F004037B607B680D
:1010BC00224B9B69214A43F0080393611F4B9B69A8
:1010CC0003F008033B603B6800224FF27F211C4871
:1010DC0000F093FC00224FF47C411A4800F08DFC88
:1010EC000E23BB600023FB6001233B6107F1080367
:1010FC001946144800F0F0FA4FF27F23BB6001232D
:10110C00FB6000233B6102237B6107F10803194656
:10111C000B4800F0E1FA4FF47C43BB600123FB6009
:10112C0000233B6102237B6107F108031946054844
:10113C0000F0D2FA00BF1837BD4680BD0010024047
:10114C00000C01400008014080B582B000AF78600F
:10115C0000F030F87B681B68B3F1804F01D1FEF7CB
:10116C00FBFF00BF0837BD4680BD80B400AF72B630
:10117C0000BFFEE780B483B000AF786039600A4AE4
:10118C007B68002142F823103B68084A82FB03125B
:10119C009210DB17D21A06497B6841F8232000BF56
:1011AC000C37BD4680BC7047EC0000206766666655
:1011BC00C400002080B483B000AF00237B601CE02F
:1011CC00124A7B6852F82330002B08DD0F4A7B68EB
:1011DC0052F823305A1E0D497B6841F823200B4AE4
:1011EC007B6852F82330002B04DC094A7B68012110
:1011FC0042F823107B6801337B607B68042BDFDDB6
:10120C0000BF00BF0C37BD4680BC7047C400002037
:10121C00EC00002080B483B000AF7860094A7B6892
:10122C0052F82330012B06D1064A7B68002142F884
:10123C002310012300E0002318460C37BD4680BC68
:10124C00704700BFEC00002080B485B000AF154B98
:10125C009B69144A43F001039361124B9B6903F0A1
:10126C000103BB60BB680F4BDB690E4A43F0805334
:10127C00D3610C4BDB6903F080537B607B680A4BBA
:10128C005B68FB60FB6823F0E063FB60FB6843F08A
:10129C008063FB60044AFB68536000BF1437BD4693
:1012AC0080BC7047001002400000014080B584B043
:1012BC0000AF78607B681B68B3F1804F13D10C4B87
:1012CC00DB690B4A43F00103D361094BDB6903F083
:1012DC000103FB60FB68002200211C2000F0C5F913
:1012EC001C2000F0DEF900BF1037BD4680BD00BFEA
:1012FC000010024080B400AFFEE780B400AFFEE700
:10130C0080B400AFFEE780B400AFFEE780B400AF5E
:10131C00FEE780B400AF00BFBD4680BC704780B410
:10132C0000AF00BFBD4680BC704780B400AF00BFAB
:10133C00BD4680BC704780B500AF00F07FF800BFA1
:10134C0080BD000080B500AF024800F0FFFF00BF79
:10135C0080BD00BF7C00002080B400AF00BFBD4644
:10136C0080BC7047FFF7F8FF0B480C490C4A002370
:10137C0002E0D458C4500433C4188C42F9D3094A3F
:10138C00094C002301E013600432A242FBD301F0AC
:10139C001DFBFFF761FD70470000002020000020BE
:1013AC00742A00082000002018010020FEE700002D
:1013BC0080B500AF084B1B68074A43F0100313605D
:1013CC00032000F047F90F2000F008F8FFF73CFF6E
:1013DC000023184680BD00BF0020024080B582B0BB
:1013EC0000AF7860124B1A68124B1B7819464FF4F9
:1013FC007A73B3FBF1F3B2FBF3F3184600F05FF929
:10140C000346002B01D001230EE07B680F2B0AD87A
:10141C00002279684FF0FF3000F027F9064A7B680C
:10142C001360002300E0012318460837BD4680BD39
:10143C00140000201C0000201800002080B400AF15
:10144C00054B1B781A46054B1B681344034A136063
:10145C0000BFBD4680BC70471C000020140100205A
:10146C0080B400AF024B1B681846BD4680BC704769
:10147C001401002080B584B000AF7860FFF7F0FF56
:10148C00B8607B68FB60FB68B3F1FF3F05D00A4B8B
:10149C001B781A46FB681344FB6000BFFFF7E0FFA4
:1014AC000246BB68D31AFA689A42F7D800BF00BF4D
:1014BC001037BD4680BD00BF1C00002080B485B035
:1014CC0000AF78607B6803F00703FB600C4BDB68B4
:1014DC00BB60BA684FF6FF031340BB60FB681A028F
:1014EC00BB68134343F0BF6343F40033BB60044A4F
:1014FC00BB68D36000BF1437BD4680BC704700BFCB
:10150C0000ED00E080B400AF044BDB681B0A03F075
:10151C0007031846BD4680BC704700BF00ED00E0D5
:10152C0080B483B000AF0346FB7197F90730002BF2
:10153C000BDBFB7903F01F02064997F907305B09B7
:10154C00012000FA02F241F8232000BF0C37BD46FF
:10155C0080BC704700E100E080B483B000AF03466C
:10156C003960FB7197F90730002B0ADB3B68DAB264
:10157C000C4997F907301201D2B20B4483F80023BF
:10158C000AE03B68DAB20849FB7903F00F03043B2D
:10159C001201D2B20B441A7600BF0C37BD4680BC88
:1015AC00704700BF00E100E000ED00E080B489B0BE
:1015BC0000AFF860B9607A60FB6803F00703FB6169
:1015CC00FB69C3F10703042B28BF0423BB61FB6930
:1015DC000433062B02D9FB69033B00E000237B613B
:1015EC004FF0FF32BB6902FA03F3DA43BB681A40CF
:1015FC007B699A404FF0FF317B6901FA03F3D943C1
:10160C007B680B40134318462437BD4680BC70479B
:10161C0080B582B000AF78607B68013BB3F1807F0E
:10162C0001D301230FE00A4A7B68013B53600F2171
:10163C004FF0FF30FFF790FF054B00229A60044BF0
:10164C0007221A60002318460837BD4680BD00BF2C
:10165C0010E000E080B582B000AF78607868FFF7EA
:10166C002DFF00BF0837BD4680BD80B586B000AFEA
:10167C000346B9607A60FB7300237B61FFF742FF7E
:10168C0078617A68B9687869FFF790FF024697F934
:10169C000F3011461846FFF75FFF00BF1837BD46E5
:1016AC0080BD80B582B000AF0346FB7197F907305F
:1016BC001846FFF735FF00BF0837BD4680BD80B523
:1016CC0082B000AF78607868FFF7A2FF0346184637
:1016DC000837BD4680BD000080B48BB000AF786089
:1016EC00396000237B6200233B6248E101227B6A64
:1016FC0002FA03F3FB613B681B68FA691340BB6198
:10170C00BA69FB699A4240F037813B685B68A34A2F
:10171C0093425ED0A14A934275D8A14A934258D0C5
:10172C009F4A93426FD89F4A934252D09D4A93420C
:10173C0069D89D4A93424CD09B4A934263D89B4AAA
:10174C00934246D0994A93425DD8122B2AD8122B39
:10175C0059D801A252F823F0DF170008B917000876
:10176C00CB1700080D1800081318000813180008F0
:10177C001318000813180008131800081318000891
:10178C001318000813180008131800081318000881
:10179C00131800081318000813180008C1170008C4
:1017AC00D5170008824A934213D02CE03B68DB68C3
:1017BC003B6229E03B68DB6804333B6224E03B6816
:1017CC00DB6808333B621FE03B68DB680C333B6231
:1017DC001AE03B689B68002B02D104233B6213E0A8
:1017EC003B689B68012B05D108233B627B68FA6937
:1017FC001A6109E008233B627B68FA695A6103E0CD
:10180C0000233B6200E000BFBB69FF2B01D87B6863
:10181C0001E07B6804337B61BB69FF2B02D87B6AD8
:10182C009B0002E07B6A083B9B003B617B691A686A
:10183C000F213B6901FA03F3DB431A40396A3B6918
:10184C0001FA03F31A437B691A603B685B6803F087
:10185C008053002B00F09080564B9B69554A43F007
:10186C0001039361534B9B6903F00103BB60BB689D
:10187C00514A7B6A9B08023352F82330FB607B6A27
:10188C0003F003039B000F2202FA03F3DB43FA6815
:10189C001340FB607B68494A93420DD07B68484AF1
:1018AC00934207D07B68474A934201D1022304E05C
:1018BC00032302E0012300E000237A6A02F0030212
:1018CC0092009340FA681343FB603B497B6A9B0888
:1018DC000233FA6841F823203B685B6803F48013F9
:1018EC00002B06D0384B9A683749BB6913438B6081
:1018FC0006E0354B9A68BB69DB43334913408B6078
:10190C003B685B6803F40013002B06D02E4BDA689F
:10191C002D49BB691343CB6006E02B4BDA68BB69DE
:10192C00DB4329491340CB603B685B6803F400330D
:10193C00002B06D0244B5A682349BB6913434B60D8
:10194C0006E0214B5A68BB69DB431F4913404B60CF
:10195C003B685B6803F48033002B06D01A4B1A6883
:10196C001949BB6913430B6006E0174B1A68BB6936
:10197C00DB43154913400B607B6A01337B623B6888
:10198C001A687B6A22FA03F3002B7FF4AFAE00BF18
:10199C0000BF2C37BD4680BC704700BF0000321022
:1019AC000000311000002210000021100000121065
:1019BC00000011100010024000000140000801401E
:1019CC00000C0140001001400004014080B485B0BF
:1019DC0000AF78600B467B807B689A687B881340ED
:1019EC00002B02D00123FB7301E00023FB73FB7B74
:1019FC0018461437BD4680BC704780B483B000AF26
:101A0C0078600B467B8013467B707B78002B03D071
:101A1C007A887B681A6103E07B881A047B681A61F8
:101A2C0000BF0C37BD4680BC704780B485B000AF9A
:101A3C0078600B467B807B68DB68FB607A88FB6890
:101A4C0013401A04FB68D9437B880B401A437B680C
:101A5C001A6100BF1437BD4680BC704780B586B094
:101A6C0000AF78607B68002B01D101236CE27B68AE
:101A7C001B6803F00103002B00F08780924B5B681E
:101A8C0003F00C03042B0CD08F4B5B6803F00C039E
:101A9C00082B12D18C4B5B6803F48033B3F5803F79
:101AAC000BD1894B1B6803F40033002B6CD07B6883
:101ABC005B68002B68D1012346E27B685B68B3F559
:101ACC00803F06D1804B1B687F4A43F48033136000
:101ADC002EE07B685B68002B0CD17B4B1B687A4A31
:101AEC0023F480331360784B1B68774A23F48023EC
:101AFC0013601DE07B685B68B3F5A02F0CD1724BB3
:101B0C001B68714A43F4802313606F4B1B686E4A49
:101B1C0043F4803313600BE06B4B1B686A4A23F46D
:101B2C0080331360684B1B68674A23F4802313606F
:101B3C007B685B68002B13D0FFF792FC386108E0E0
:101B4C00FFF78EFC02463B69D31A642B01D90323A1
:101B5C00FAE15D4B1B6803F40033002BF0D014E06A
:101B6C00FFF77EFC386108E0FFF77AFC02463B6920
:101B7C00D31A642B01D90323E6E1534B1B6803F4FE
:101B8C000033002BF0D100E000BF7B681B6803F032
:101B9C000203002B63D04C4B5B6803F00C03002B4F
:101BAC000BD0494B5B6803F00C03082B1CD1464B44
:101BBC005B6803F48033002B16D1434B1B6803F096
:101BCC000203002B05D07B681B69012B01D001237C
:101BDC00BAE13D4B1B6823F0F8027B685B69DB00C4
:101BEC00394913430B603AE07B681B69002B20D00A
:101BFC00364B01221A60FFF733FC386108E0FFF71F
:101C0C002FFC02463B69D31A022B01D903239BE11B
:101C1C002D4B1B6803F00203002BF0D02A4B1B68E2
:101C2C0023F0F8027B685B69DB00274913430B60E8
:101C3C0015E0264B00221A60FFF712FC386108E011
:101C4C00FFF70EFC02463B69D31A022B01D9032382
:101C5C007AE11D4B1B6803F00203002BF0D17B686B
:101C6C001B6803F00803002B3AD07B689B69002BA0
:101C7C0019D0174B01221A60FFF7F2FB386108E00C
:101C8C00FFF7EEFB02463B69D31A022B01D9032363
:101C9C005AE10D4B5B6A03F00203002BF0D00120DC
:101CAC0000F09AFA1CE00A4B00221A60FFF7D8FBEE
:101CBC0038610FE0FFF7D4FB02463B69D31A022BC5
:101CCC0008D9032340E100BF00100240000042424B
:101CDC00800442429E4B5B6A03F00203002BE9D165
:101CEC007B681B6803F00403002B00F0A680002324
:101CFC00FB75974BDB6903F08053002B0DD1944B94
:101D0C00DB69934A43F08053D361914BDB6903F059
:101D1C008053BB60BB680123FB758E4B1B6803F4BF
:101D2C008073002B18D18B4B1B688A4A43F4807349
:101D3C001360FFF795FB386108E0FFF791FB024653
:101D4C003B69D31A642B01D90323FDE0814B1B683B
:101D5C0003F48073002BF0D07B68DB68012B06D179
:101D6C007B4B1B6A7A4A43F0010313622DE07B68BC
:101D7C00DB68002B0CD1764B1B6A754A23F00103F0
:101D8C001362734B1B6A724A23F0040313621CE048
:101D9C007B68DB68052B0CD16D4B1B6A6C4A43F0DE
:101DAC00040313626A4B1B6A694A43F00103136212
:101DBC000BE0674B1B6A664A23F001031362644B0A
:101DCC001B6A634A23F0040313627B68DB68002BF5
:101DDC0015D0FFF745FB38610AE0FFF741FB0246DF
:101DEC003B69D31A41F28832934201D90323ABE009
:101DFC00574B1B6A03F00203002BEED014E0FFF7E5
:101E0C002FFB38610AE0FFF72BFB02463B69D31A24
:101E1C0041F28832934201D9032395E04C4B1B6A63
:101E2C0003F00203002BEED1FB7D012B05D1484BB7
:101E3C00DB69474A23F08053D3617B68DB69002B55
:101E4C0000F08180424B5B6803F00C03082B61D0DF
:101E5C007B68DB69022B46D13F4B00221A60FFF7EF
:101E6C00FFFA386108E0FFF7FBFA02463B69D31A28
:101E7C00022B01D9032367E0354B1B6803F0007379
:101E8C00002BF0D17B681B6AB3F5803F08D1304B37
:101E9C005B6823F400327B689B682D4913434B60CD
:101EAC002B4B5B6823F474127B68196A7B685B6A42
:101EBC000B43274913434B60274B01221A60FFF752
:101ECC00CFFA386108E0FFF7CBFA02463B69D31A28
:101EDC00022B01D9032337E01D4B1B6803F0007361
:101EEC00002BF0D02FE01C4B00221A60FFF7B8FA41
:101EFC00386108E0FFF7B4FA02463B69D31A022BAB
:101F0C0001D9032320E0124B1B6803F00073002B54
:101F1C00F0D118E07B68DB69012B01D1012313E0C0
:101F2C000B4B5B68FB60FB6803F480327B681B6ABD
:101F3C009A4206D1FB6803F470127B685B6A9A4282
:101F4C0001D0012300E0002318461837BD4680BDA0
:101F5C0000100240007000406000424280B584B026
:101F6C0000AF786039607B68002B01D10123D0E091
:101F7C006A4B1B6803F007033A689A4210D9674B07
:101F8C001B6823F0070265493B6813430B60634BE6
:101F9C001B6803F007033A689A4201D00123B8E0AA
:101FAC007B681B6803F00203002B20D07B681B6846
:101FBC0003F00403002B05D0594B5B68584A43F4DB
:101FCC00E06353607B681B6803F00803002B05D0AB
:101FDC00534B5B68524A43F460535360504B5B68FD
:101FEC0023F0F0027B689B684D4913434B607B6880
:101FFC001B6803F00103002B40D07B685B68012B4E
:10200C0007D1474B1B6803F40033002B15D1012378
:10201C007FE07B685B68022B07D1414B1B6803F0A8
:10202C000073002B09D1012373E03D4B1B6803F0B7
:10203C000203002B01D101236BE0394B5B6823F0C9
:10204C0003027B685B68364913434B60FFF708FA61
:10205C00F8600AE0FFF704FA0246FB68D31A41F273
:10206C008832934201D9032353E02D4B5B6803F074
:10207C000C027B685B689B009A42EBD1274B1B6878
:10208C0003F007033A689A4210D2244B1B6823F0E2
:10209C00070222493B6813430B60204B1B6803F07B
:1020AC0007033A689A4201D0012332E07B681B682F
:1020BC0003F00403002B08D0194B5B6823F4E06297
:1020CC007B68DB68164913434B607B681B6803F025
:1020DC000803002B09D0124B5B6823F460527B6819
:1020EC001B69DB000E4913434B6000F021F80246DC
:1020FC000B4B5B681B0903F00F030A49CB5C22FAFC
:10210C0003F3094A1360094B1B681846FFF766F97D
:10211C00002318461037BD4680BD00BF002002408A
:10212C0000100240482A000814000020180000206B
:10213C0080B487B000AF0023FB600023BB6000239A
:10214C007B6100237B6000233B611E4B5B68FB6063
:10215C00FB6803F00C03042B02D0082B03D027E000
:10216C00194B3B6127E0FB689B0C03F00F03174AEC
:10217C00D35C7B60FB6803F48033002B10D0114BD5
:10218C005B685B0C03F00103114AD35CBB607B689A
:10219C000D4A02FB03F2BB68B2FBF3F37B6104E074
:1021AC007B680C4A02FB03F37B617B693B6102E0B9
:1021BC00054B3B6100BF3B6918461C37BD4680BCD4
:1021CC00704700BF0010024000127A00582A000825
:1021DC00682A000800093D0080B485B000AF786023
:1021EC000A4B1B680A4AA2FB03235B0A7A6802FBB0
:1021FC0003F3FB6000BFFB685A1EFA60002BF9D199
:10220C0000BF00BF1437BD4680BC704714000020CF
:10221C00D34D621080B582B000AF78607B68002B24
:10222C0001D1012341E07B6893F83D30DBB2002BF8
:10223C0006D17B68002283F83C207868FFF736F8DB
:10224C007B68022283F83D207B681A687B68043324
:10225C001946104600F056FA7B68012283F8462096
:10226C007B68012283F83E207B68012283F83F20A3
:10227C007B68012283F840207B68012283F841208F
:10228C007B68012283F842207B68012283F843207B
:10229C007B68012283F844207B68012283F8452067
:1022AC007B68012283F83D20002318460837BD4681
:1022BC0080BD000080B485B000AF78607B6893F877
:1022CC003D30DBB2012B01D0012335E07B680222CB
:1022DC0083F83D207B681B68DA687B681B6842F0DA
:1022EC000102DA607B681B68164A934209D07B684E
:1022FC001B68B3F1804F04D07B681B68124A934271
:10230C0011D17B681B689B6803F00703FB60FB68BB
:10231C00062B10D07B681B681A687B681B6842F020
:10232C0001021A6007E07B681B681A687B681B68EF
:10233C0042F001021A60002318461437BD4680BCD7
:10234C00704700BF002C01400004004080B584B0F1
:10235C0000AF78607B681B68DB68FB607B681B6880
:10236C001B69BB60BB6803F00203002B20D0FB6829
:10237C0003F00203002B1BD07B681B686FF002027A
:10238C001A617B6801221A777B681B689B6903F0D2
:10239C000303002B03D0786800F098F905E0786807
:1023AC0000F08BF9786800F09AF97B6800221A77B4
:1023BC00BB6803F00403002B20D0FB6803F004037C
:1023CC00002B1BD07B681B686FF004021A617B68C2
:1023DC0002221A777B681B689B6903F44073002BFD
:1023EC0003D0786800F072F905E0786800F065F9C0
:1023FC00786800F074F97B6800221A77BB6803F0E8
:10240C000803002B20D0FB6803F00803002B1BD023
:10241C007B681B686FF008021A617B6804221A77CC
:10242C007B681B68DB6903F00303002B03D078681F
:10243C0000F04CF905E0786800F03FF9786800F09E
:10244C004EF97B6800221A77BB6803F01003002B4F
:10245C0020D0FB6803F01003002B1BD07B681B689B
:10246C006FF010021A617B6808221A777B681B6870
:10247C00DB6903F44073002B03D0786800F026F975
:10248C0005E0786800F019F9786800F028F97B68A5
:10249C0000221A77BB6803F00103002B0CD0FB68F9
:1024AC0003F00103002B07D07B681B686FF001025F
:1024BC001A617868FEF748FEBB6803F08003002BB6
:1024CC000CD0FB6803F08003002B07D07B681B68E3
:1024DC006FF080021A61786800F06FFABB6803F045
:1024EC004003002B0CD0FB6803F04003002B07D0FB
:1024FC007B681B686FF040021A61786800F0F8F88E
:10250C00BB6803F02003002B0CD0FB6803F0200306
:10251C00002B07D07B681B686FF020021A6178686B
:10252C0000F042FA00BF1037BD4680BD80B584B0C4
:10253C0000AF786039600023FB737B6893F83C3004
:10254C00012B01D10223B4E07B68012283F83C20EB
:10255C007B68022283F83D207B681B689B68BB600C
:10256C00BB6823F07703BB60BB6823F47F43BB607D
:10257C007B681B68BA689A603B681B68B3F5005FA0
:10258C003ED0B3F5005F00F28780B3F5805F00F0BA
:10259C008680B3F5805F7FD8702B1AD0702B7BD8D8
:1025AC00602B50D0602B77D8502B3CD0502B73D84D
:1025BC00402B58D0402B6FD8302B64D0302B6BD89D
:1025CC00202B60D0202B67D8002B5CD0102B5AD03E
:1025DC0062E07B6818683B6899683B685A683B689E
:1025EC00DB6800F06AF97B681B689B68BB60BB68A2
:1025FC0043F07703BB607B681B68BA689A604FE056
:10260C007B6818683B6899683B685A683B68DB686C
:10261C0000F053F97B681B689A687B681B6842F46E
:10262C0080429A603CE07B6818683B6859683B685C
:10263C00DB681A4600F0CAF87B681B685021184604
:10264C0000F021F92CE07B6818683B6859683B68FE
:10265C00DB681A4600F0E8F87B681B6860211846B6
:10266C0000F011F91CE07B6818683B6859683B68FE
:10267C00DB681A4600F0AAF87B681B6840211846F4
:10268C0000F001F90CE07B681A683B681B6819467E
:10269C00104600F0F8F803E00123FB7300E000BFE4
:1026AC007B68012283F83D207B68002283F83C2064
:1026BC00FB7B18461037BD4680BD80B483B000AF9D
:1026CC00786000BF0C37BD4680BC704780B483B0C7
:1026DC0000AF786000BF0C37BD4680BC704780B43B
:1026EC0083B000AF786000BF0C37BD4680BC70472C
:1026FC0080B483B000AF786000BF0C37BD4680BC9F
:10270C007047000080B485B000AF786039607B689A
:10271C001B68FB607B682B4A934207D07B68B3F144
:10272C00804F03D07B68284A934208D1FB6823F082
:10273C007003FB603B685B68FA681343FB607B6863
:10274C00204A934207D07B68B3F1804F03D07B685B
:10275C001D4A934208D1FB6823F44073FB603B682D
:10276C00DB68FA681343FB60FB6823F080023B686C
:10277C005B691343FB607B68FA681A603B689A6874
:10278C007B68DA623B681A687B689A627B680D4AE0
:10279C00934203D13B681A697B681A637B680122F8
:1027AC005A617B681B6903F00103002B05D07B6821
:1027BC001B6923F001027B681A6100BF1437BD4608
:1027CC0080BC7047002C01400004004080B487B0EE
:1027DC0000AFF860B9607A60FB681B6A7B61FB68CC
:1027EC001B6A23F00102FB681A62FB689B693B6160
:1027FC003B6923F0F0033B617B681B013A6913438F
:10280C003B617B6923F00A037B617A69BB681343E4
:10281C007B61FB683A699A61FB687A691A6200BF4E
:10282C001C37BD4680BC704780B487B000AFF860E1
:10283C00B9607A60FB681B6A7B61FB681B6A23F0DA
:10284C001002FB681A62FB689B693B613B6923F4CD
:10285C0070433B617B681B033A6913433B617B69A3
:10286C0023F0A0037B61BB681B017A6913437B6176
:10287C00FB683A699A61FB687A691A6200BF1C3777
:10288C00BD4680BC704780B485B000AF78603960BD
:10289C007B689B68FB60FB6823F07003FB603A6805
:1028AC00FB68134343F00703FB607B68FA689A608C
:1028BC0000BF1437BD4680BC704780B487B000AFF2
:1028CC00F860B9607A603B60FB689B687B617B69F0
:1028DC0023F47F437B613B681A027B681A43BB6815
:1028EC0013437A6913437B61FB687A699A6000BF72
:1028FC001C37BD4680BC704780B485B000AF786093
:10290C0039607B6893F83C30012B01D1022341E004
:10291C007B68012283F83C207B68022283F83D20EF
:10292C007B681B685B68FB607B681B689B68BB6093
:10293C00FB6823F07003FB603B681B68FA68134369
:10294C00FB607B681B68FA685A607B681B68144ADA
:10295C00934209D07B681B68B3F1804F04D07B682D
:10296C001B68104A93420CD1BB6823F08003BB60F8
:10297C003B685B68BA681343BB607B681B68BA68CA
:10298C009A607B68012283F83D207B68002283F8E3
:10299C003C20002318461437BD4680BC704700BF4E
:1029AC00002C01400004004080B483B000AF78607C
:1029BC0000BF0C37BD4680BC704780B483B000AFFD
:1029CC00786000BF0C37BD4680BC704770B50026E0
:1029DC000C4D0D4C641BA410A64209D100F022F83A
:1029EC0000260A4D0A4C641BA410A64205D170BDEA
:1029FC0055F8043B98470136EEE755F8043B9847E9
:102A0C000136F2E76C2A00086C2A00086C2A0008D0
:102A1C00702A000803460244934200D1704703F821
:102A2C00011BF9E7F8B500BFF8BC08BC9E4670471F
:0C2A3C00F8B500BFF8BC08BC9E4670470F
:102A48000000000000000000010203040607080956
:102A580002030405060708090A0B0C0D0E0F1010D7
:042A68000102000067
:042A6C00310100082C
:042A70000D0100084C
:102A74000008014000080140000801400200040071
:102A84000800000000127A0010000000010000009D
:04000005080013716B
:00000001FF
